{
  "contractName": "AuthorityOracle",
  "abi": [
    {
      "constant": true,
      "inputs": [
        {
          "name": "",
          "type": "uint256"
        }
      ],
      "name": "authorized",
      "outputs": [
        {
          "name": "",
          "type": "address"
        }
      ],
      "payable": false,
      "stateMutability": "view",
      "type": "function"
    },
    {
      "constant": true,
      "inputs": [
        {
          "name": "",
          "type": "uint256"
        }
      ],
      "name": "traders",
      "outputs": [
        {
          "name": "",
          "type": "address"
        }
      ],
      "payable": false,
      "stateMutability": "view",
      "type": "function"
    },
    {
      "constant": true,
      "inputs": [
        {
          "name": "",
          "type": "uint256"
        }
      ],
      "name": "pharmacies",
      "outputs": [
        {
          "name": "",
          "type": "address"
        }
      ],
      "payable": false,
      "stateMutability": "view",
      "type": "function"
    },
    {
      "constant": true,
      "inputs": [
        {
          "name": "",
          "type": "uint256"
        }
      ],
      "name": "producers",
      "outputs": [
        {
          "name": "",
          "type": "address"
        }
      ],
      "payable": false,
      "stateMutability": "view",
      "type": "function"
    },
    {
      "inputs": [],
      "payable": false,
      "stateMutability": "nonpayable",
      "type": "constructor"
    },
    {
      "constant": true,
      "inputs": [
        {
          "name": "_address",
          "type": "address"
        }
      ],
      "name": "isAuthorized",
      "outputs": [
        {
          "name": "",
          "type": "bool"
        }
      ],
      "payable": false,
      "stateMutability": "view",
      "type": "function"
    },
    {
      "constant": true,
      "inputs": [
        {
          "name": "_address",
          "type": "address"
        }
      ],
      "name": "isProducer",
      "outputs": [
        {
          "name": "",
          "type": "bool"
        }
      ],
      "payable": false,
      "stateMutability": "view",
      "type": "function"
    },
    {
      "constant": true,
      "inputs": [
        {
          "name": "_address",
          "type": "address"
        }
      ],
      "name": "isTrader",
      "outputs": [
        {
          "name": "",
          "type": "bool"
        }
      ],
      "payable": false,
      "stateMutability": "view",
      "type": "function"
    },
    {
      "constant": true,
      "inputs": [
        {
          "name": "_address",
          "type": "address"
        }
      ],
      "name": "isPharmacy",
      "outputs": [
        {
          "name": "",
          "type": "bool"
        }
      ],
      "payable": false,
      "stateMutability": "view",
      "type": "function"
    },
    {
      "constant": false,
      "inputs": [
        {
          "name": "_address",
          "type": "address"
        }
      ],
      "name": "addToAuthorized",
      "outputs": [],
      "payable": false,
      "stateMutability": "nonpayable",
      "type": "function"
    },
    {
      "constant": false,
      "inputs": [
        {
          "name": "_address",
          "type": "address"
        }
      ],
      "name": "addToProducers",
      "outputs": [],
      "payable": false,
      "stateMutability": "nonpayable",
      "type": "function"
    },
    {
      "constant": false,
      "inputs": [
        {
          "name": "_address",
          "type": "address"
        }
      ],
      "name": "addToTraders",
      "outputs": [],
      "payable": false,
      "stateMutability": "nonpayable",
      "type": "function"
    },
    {
      "constant": false,
      "inputs": [
        {
          "name": "_address",
          "type": "address"
        }
      ],
      "name": "addToPharmacies",
      "outputs": [],
      "payable": false,
      "stateMutability": "nonpayable",
      "type": "function"
    }
  ],
  "bytecode": "0x6060604052341561000f57600080fd5b33600460006101000a81548173ffffffffffffffffffffffffffffffffffffffff021916908373ffffffffffffffffffffffffffffffffffffffff1602179055506001805480600101828161006491906100da565b91600052602060002090016000600460009054906101000a900473ffffffffffffffffffffffffffffffffffffffff16909190916101000a81548173ffffffffffffffffffffffffffffffffffffffff021916908373ffffffffffffffffffffffffffffffffffffffff1602179055505061012b565b815481835581811511610101578183600052602060002091820191016101009190610106565b5b505050565b61012891905b8082111561012457600081600090555060010161010c565b5090565b90565b610b888061013a6000396000f3006060604052600436106100ba576000357c0100000000000000000000000000000000000000000000000000000000900463ffffffff1680630d48669a146100bf578063135e563d146101225780633bce6749146101855780634039ad0d146101be5780638a5acd731461020f578063925f82a4146102725780639b68ade7146102ab578063c720a1291461030e578063dfb0fda314610347578063e6f234d614610398578063f5521022146103d1578063fe9fbb8014610422575b600080fd5b34156100ca57600080fd5b6100e06004808035906020019091905050610473565b604051808273ffffffffffffffffffffffffffffffffffffffff1673ffffffffffffffffffffffffffffffffffffffff16815260200191505060405180910390f35b341561012d57600080fd5b61014360048080359060200190919050506104b2565b604051808273ffffffffffffffffffffffffffffffffffffffff1673ffffffffffffffffffffffffffffffffffffffff16815260200191505060405180910390f35b341561019057600080fd5b6101bc600480803573ffffffffffffffffffffffffffffffffffffffff169060200190919050506104f1565b005b34156101c957600080fd5b6101f5600480803573ffffffffffffffffffffffffffffffffffffffff169060200190919050506105b3565b604051808215151515815260200191505060405180910390f35b341561021a57600080fd5b6102306004808035906020019091905050610658565b604051808273ffffffffffffffffffffffffffffffffffffffff1673ffffffffffffffffffffffffffffffffffffffff16815260200191505060405180910390f35b341561027d57600080fd5b6102a9600480803573ffffffffffffffffffffffffffffffffffffffff16906020019091905050610697565b005b34156102b657600080fd5b6102cc6004808035906020019091905050610759565b604051808273ffffffffffffffffffffffffffffffffffffffff1673ffffffffffffffffffffffffffffffffffffffff16815260200191505060405180910390f35b341561031957600080fd5b610345600480803573ffffffffffffffffffffffffffffffffffffffff16906020019091905050610798565b005b341561035257600080fd5b61037e600480803573ffffffffffffffffffffffffffffffffffffffff1690602001909190505061085a565b604051808215151515815260200191505060405180910390f35b34156103a357600080fd5b6103cf600480803573ffffffffffffffffffffffffffffffffffffffff169060200190919050506108ff565b005b34156103dc57600080fd5b610408600480803573ffffffffffffffffffffffffffffffffffffffff169060200190919050506109c1565b604051808215151515815260200191505060405180910390f35b341561042d57600080fd5b610459600480803573ffffffffffffffffffffffffffffffffffffffff16906020019091905050610a66565b604051808215151515815260200191505060405180910390f35b60018181548110151561048257fe5b90600052602060002090016000915054906101000a900473ffffffffffffffffffffffffffffffffffffffff1681565b6002818154811015156104c157fe5b90600052602060002090016000915054906101000a900473ffffffffffffffffffffffffffffffffffffffff1681565b600460009054906101000a900473ffffffffffffffffffffffffffffffffffffffff1673ffffffffffffffffffffffffffffffffffffffff163373ffffffffffffffffffffffffffffffffffffffff1614151561054d57600080fd5b600080548060010182816105619190610b0b565b9160005260206000209001600083909190916101000a81548173ffffffffffffffffffffffffffffffffffffffff021916908373ffffffffffffffffffffffffffffffffffffffff1602179055505050565b600080600090505b6002805490506000101561064d578273ffffffffffffffffffffffffffffffffffffffff166002828154811015156105ef57fe5b906000526020600020900160009054906101000a900473ffffffffffffffffffffffffffffffffffffffff1673ffffffffffffffffffffffffffffffffffffffff1614156106405760019150610652565b80806001019150506105bb565b600091505b50919050565b60038181548110151561066757fe5b90600052602060002090016000915054906101000a900473ffffffffffffffffffffffffffffffffffffffff1681565b600460009054906101000a900473ffffffffffffffffffffffffffffffffffffffff1673ffffffffffffffffffffffffffffffffffffffff163373ffffffffffffffffffffffffffffffffffffffff161415156106f357600080fd5b600380548060010182816107079190610b0b565b9160005260206000209001600083909190916101000a81548173ffffffffffffffffffffffffffffffffffffffff021916908373ffffffffffffffffffffffffffffffffffffffff1602179055505050565b60008181548110151561076857fe5b90600052602060002090016000915054906101000a900473ffffffffffffffffffffffffffffffffffffffff1681565b600460009054906101000a900473ffffffffffffffffffffffffffffffffffffffff1673ffffffffffffffffffffffffffffffffffffffff163373ffffffffffffffffffffffffffffffffffffffff161415156107f457600080fd5b600180548060010182816108089190610b0b565b9160005260206000209001600083909190916101000a81548173ffffffffffffffffffffffffffffffffffffffff021916908373ffffffffffffffffffffffffffffffffffffffff1602179055505050565b600080600090505b600380549050600010156108f4578273ffffffffffffffffffffffffffffffffffffffff1660038281548110151561089657fe5b906000526020600020900160009054906101000a900473ffffffffffffffffffffffffffffffffffffffff1673ffffffffffffffffffffffffffffffffffffffff1614156108e757600191506108f9565b8080600101915050610862565b600091505b50919050565b600460009054906101000a900473ffffffffffffffffffffffffffffffffffffffff1673ffffffffffffffffffffffffffffffffffffffff163373ffffffffffffffffffffffffffffffffffffffff1614151561095b57600080fd5b6002805480600101828161096f9190610b0b565b9160005260206000209001600083909190916101000a81548173ffffffffffffffffffffffffffffffffffffffff021916908373ffffffffffffffffffffffffffffffffffffffff1602179055505050565b600080600090505b60008054905060001015610a5b578273ffffffffffffffffffffffffffffffffffffffff166000828154811015156109fd57fe5b906000526020600020900160009054906101000a900473ffffffffffffffffffffffffffffffffffffffff1673ffffffffffffffffffffffffffffffffffffffff161415610a4e5760019150610a60565b80806001019150506109c9565b600091505b50919050565b600080600090505b60018054905060001015610b00578273ffffffffffffffffffffffffffffffffffffffff16600182815481101515610aa257fe5b906000526020600020900160009054906101000a900473ffffffffffffffffffffffffffffffffffffffff1673ffffffffffffffffffffffffffffffffffffffff161415610af35760019150610b05565b8080600101915050610a6e565b600091505b50919050565b815481835581811511610b3257818360005260206000209182019101610b319190610b37565b5b505050565b610b5991905b80821115610b55576000816000905550600101610b3d565b5090565b905600a165627a7a7230582062a183dcf995abbe086118e11de080f6ee586baa75917e5baf940fac82ba5d4c0029",
  "source": "pragma solidity ^0.4.18;\r\n\r\n\r\ncontract AuthorityOracle {\r\n\r\n    address[] public producers;\r\n\r\n    address[] public authorized;\r\n\r\n    address[] public traders;\r\n\r\n    address[] public pharmacies;\r\n\r\n    address private owner;\r\n\r\n    function AuthorityOracle() public {\r\n        owner = msg.sender;\r\n        authorized.push(owner);\r\n    }\r\n\r\n    modifier isOwner() {\r\n        require(msg.sender == owner);\r\n        _;\r\n    }\r\n\r\n    function isAuthorized(address _address) view public returns(bool) {\r\n        for (uint i = 0; 0 < authorized.length; i++) {\r\n            if (authorized[i] == _address) {\r\n                return true;\r\n            }\r\n        }\r\n        return false;\r\n    }\r\n\r\n    function isProducer(address _address) view public returns(bool) {\r\n        for (uint i = 0; 0 < producers.length; i++) {\r\n            if (producers[i] == _address) {\r\n                return true;\r\n            }\r\n        }\r\n        return false;\r\n    }\r\n\r\n    function isTrader(address _address) view public returns(bool) {\r\n        for (uint i = 0; 0 < traders.length; i++) {\r\n            if (traders[i] == _address) {\r\n                return true;\r\n            }\r\n        }\r\n        return false;\r\n    }\r\n\r\n    function isPharmacy(address _address) view public returns(bool) {\r\n        for (uint i = 0; 0 < pharmacies.length; i++) {\r\n            if (pharmacies[i] == _address) {\r\n                return true;\r\n            }\r\n        }\r\n        return false;\r\n    }\r\n\r\n    function addToAuthorized(address _address) isOwner public {\r\n        authorized.push(_address);\r\n    }\r\n\r\n    function addToProducers(address _address) isOwner public {\r\n        producers.push(_address);\r\n    }\r\n\r\n    function addToTraders(address _address) isOwner public {\r\n        traders.push(_address);\r\n    }\r\n\r\n    function addToPharmacies(address _address) isOwner public {\r\n        pharmacies.push(_address);\r\n    }\r\n}\r\n",
  "sourcePath": "C:\\Projects\\solidity\\MedTrace\\contracts\\AuthorityOracle.sol",
  "compiler": {
    "name": "solc",
    "version": "0.4.19+commit.c4cbbb05.Emscripten.clang"
  },
  "schemaVersion": "2.0.0",
  "updatedAt": "2018-03-07T19:20:19.658Z"
}