{
  "contractName": "AuthorityOracle",
  "abi": [
    {
      "constant": true,
      "inputs": [
        {
          "name": "",
          "type": "uint256"
        }
      ],
      "name": "authorized",
      "outputs": [
        {
          "name": "",
          "type": "address"
        }
      ],
      "payable": false,
      "stateMutability": "view",
      "type": "function"
    },
    {
      "constant": true,
      "inputs": [
        {
          "name": "",
          "type": "uint256"
        }
      ],
      "name": "traders",
      "outputs": [
        {
          "name": "",
          "type": "address"
        }
      ],
      "payable": false,
      "stateMutability": "view",
      "type": "function"
    },
    {
      "constant": true,
      "inputs": [
        {
          "name": "",
          "type": "uint256"
        }
      ],
      "name": "pharmacies",
      "outputs": [
        {
          "name": "",
          "type": "address"
        }
      ],
      "payable": false,
      "stateMutability": "view",
      "type": "function"
    },
    {
      "constant": true,
      "inputs": [
        {
          "name": "",
          "type": "uint256"
        }
      ],
      "name": "producers",
      "outputs": [
        {
          "name": "",
          "type": "address"
        }
      ],
      "payable": false,
      "stateMutability": "view",
      "type": "function"
    },
    {
      "inputs": [],
      "payable": false,
      "stateMutability": "nonpayable",
      "type": "constructor"
    },
    {
      "constant": true,
      "inputs": [],
      "name": "getProducers",
      "outputs": [
        {
          "name": "",
          "type": "address[]"
        }
      ],
      "payable": false,
      "stateMutability": "view",
      "type": "function"
    },
    {
      "constant": true,
      "inputs": [],
      "name": "getAuthorized",
      "outputs": [
        {
          "name": "",
          "type": "address[]"
        }
      ],
      "payable": false,
      "stateMutability": "view",
      "type": "function"
    },
    {
      "constant": true,
      "inputs": [],
      "name": "getTraders",
      "outputs": [
        {
          "name": "",
          "type": "address[]"
        }
      ],
      "payable": false,
      "stateMutability": "view",
      "type": "function"
    },
    {
      "constant": true,
      "inputs": [],
      "name": "getPharmacies",
      "outputs": [
        {
          "name": "",
          "type": "address[]"
        }
      ],
      "payable": false,
      "stateMutability": "view",
      "type": "function"
    },
    {
      "constant": true,
      "inputs": [
        {
          "name": "_address",
          "type": "address"
        }
      ],
      "name": "isAuthorized",
      "outputs": [
        {
          "name": "",
          "type": "bool"
        }
      ],
      "payable": false,
      "stateMutability": "view",
      "type": "function"
    },
    {
      "constant": true,
      "inputs": [
        {
          "name": "_address",
          "type": "address"
        }
      ],
      "name": "isProducer",
      "outputs": [
        {
          "name": "",
          "type": "bool"
        }
      ],
      "payable": false,
      "stateMutability": "view",
      "type": "function"
    },
    {
      "constant": true,
      "inputs": [
        {
          "name": "_address",
          "type": "address"
        }
      ],
      "name": "isTrader",
      "outputs": [
        {
          "name": "",
          "type": "bool"
        }
      ],
      "payable": false,
      "stateMutability": "view",
      "type": "function"
    },
    {
      "constant": true,
      "inputs": [
        {
          "name": "_address",
          "type": "address"
        }
      ],
      "name": "isPharmacy",
      "outputs": [
        {
          "name": "",
          "type": "bool"
        }
      ],
      "payable": false,
      "stateMutability": "view",
      "type": "function"
    },
    {
      "constant": false,
      "inputs": [
        {
          "name": "_address",
          "type": "address"
        }
      ],
      "name": "addToAuthorized",
      "outputs": [],
      "payable": false,
      "stateMutability": "nonpayable",
      "type": "function"
    },
    {
      "constant": false,
      "inputs": [
        {
          "name": "_address",
          "type": "address"
        }
      ],
      "name": "addToProducers",
      "outputs": [],
      "payable": false,
      "stateMutability": "nonpayable",
      "type": "function"
    },
    {
      "constant": false,
      "inputs": [
        {
          "name": "_address",
          "type": "address"
        }
      ],
      "name": "addToTraders",
      "outputs": [],
      "payable": false,
      "stateMutability": "nonpayable",
      "type": "function"
    },
    {
      "constant": false,
      "inputs": [
        {
          "name": "_address",
          "type": "address"
        }
      ],
      "name": "addToPharmacies",
      "outputs": [],
      "payable": false,
      "stateMutability": "nonpayable",
      "type": "function"
    }
  ],
  "bytecode": "0x6060604052341561000f57600080fd5b33600460006101000a81548173ffffffffffffffffffffffffffffffffffffffff021916908373ffffffffffffffffffffffffffffffffffffffff1602179055506001805480600101828161006491906100da565b91600052602060002090016000600460009054906101000a900473ffffffffffffffffffffffffffffffffffffffff16909190916101000a81548173ffffffffffffffffffffffffffffffffffffffff021916908373ffffffffffffffffffffffffffffffffffffffff1602179055505061012b565b815481835581811511610101578183600052602060002091820191016101009190610106565b5b505050565b61012891905b8082111561012457600081600090555060010161010c565b5090565b90565b610fc08061013a6000396000f3006060604052600436106100e6576000357c0100000000000000000000000000000000000000000000000000000000900463ffffffff1680630d48669a146100eb578063135e563d1461014e5780633bce6749146101b15780634039ad0d146101ea57806357b613601461023b5780638413ad48146102a55780638a5acd731461030f578063925f82a4146103725780639b68ade7146103ab578063c720a1291461040e578063dfb0fda314610447578063e65a315614610498578063e6f234d614610502578063e80a7eb91461053b578063f5521022146105a5578063fe9fbb80146105f6575b600080fd5b34156100f657600080fd5b61010c6004808035906020019091905050610647565b604051808273ffffffffffffffffffffffffffffffffffffffff1673ffffffffffffffffffffffffffffffffffffffff16815260200191505060405180910390f35b341561015957600080fd5b61016f6004808035906020019091905050610686565b604051808273ffffffffffffffffffffffffffffffffffffffff1673ffffffffffffffffffffffffffffffffffffffff16815260200191505060405180910390f35b34156101bc57600080fd5b6101e8600480803573ffffffffffffffffffffffffffffffffffffffff169060200190919050506106c5565b005b34156101f557600080fd5b610221600480803573ffffffffffffffffffffffffffffffffffffffff16906020019091905050610787565b604051808215151515815260200191505060405180910390f35b341561024657600080fd5b61024e61082c565b6040518080602001828103825283818151815260200191508051906020019060200280838360005b83811015610291578082015181840152602081019050610276565b505050509050019250505060405180910390f35b34156102b057600080fd5b6102b86108c0565b6040518080602001828103825283818151815260200191508051906020019060200280838360005b838110156102fb5780820151818401526020810190506102e0565b505050509050019250505060405180910390f35b341561031a57600080fd5b6103306004808035906020019091905050610954565b604051808273ffffffffffffffffffffffffffffffffffffffff1673ffffffffffffffffffffffffffffffffffffffff16815260200191505060405180910390f35b341561037d57600080fd5b6103a9600480803573ffffffffffffffffffffffffffffffffffffffff16906020019091905050610993565b005b34156103b657600080fd5b6103cc6004808035906020019091905050610a55565b604051808273ffffffffffffffffffffffffffffffffffffffff1673ffffffffffffffffffffffffffffffffffffffff16815260200191505060405180910390f35b341561041957600080fd5b610445600480803573ffffffffffffffffffffffffffffffffffffffff16906020019091905050610a94565b005b341561045257600080fd5b61047e600480803573ffffffffffffffffffffffffffffffffffffffff16906020019091905050610b56565b604051808215151515815260200191505060405180910390f35b34156104a357600080fd5b6104ab610bfb565b6040518080602001828103825283818151815260200191508051906020019060200280838360005b838110156104ee5780820151818401526020810190506104d3565b505050509050019250505060405180910390f35b341561050d57600080fd5b610539600480803573ffffffffffffffffffffffffffffffffffffffff16906020019091905050610c8f565b005b341561054657600080fd5b61054e610d51565b6040518080602001828103825283818151815260200191508051906020019060200280838360005b83811015610591578082015181840152602081019050610576565b505050509050019250505060405180910390f35b34156105b057600080fd5b6105dc600480803573ffffffffffffffffffffffffffffffffffffffff16906020019091905050610de5565b604051808215151515815260200191505060405180910390f35b341561060157600080fd5b61062d600480803573ffffffffffffffffffffffffffffffffffffffff16906020019091905050610e8a565b604051808215151515815260200191505060405180910390f35b60018181548110151561065657fe5b90600052602060002090016000915054906101000a900473ffffffffffffffffffffffffffffffffffffffff1681565b60028181548110151561069557fe5b90600052602060002090016000915054906101000a900473ffffffffffffffffffffffffffffffffffffffff1681565b600460009054906101000a900473ffffffffffffffffffffffffffffffffffffffff1673ffffffffffffffffffffffffffffffffffffffff163373ffffffffffffffffffffffffffffffffffffffff1614151561072157600080fd5b600080548060010182816107359190610f2f565b9160005260206000209001600083909190916101000a81548173ffffffffffffffffffffffffffffffffffffffff021916908373ffffffffffffffffffffffffffffffffffffffff1602179055505050565b600080600090505b60028054905060001015610821578273ffffffffffffffffffffffffffffffffffffffff166002828154811015156107c357fe5b906000526020600020900160009054906101000a900473ffffffffffffffffffffffffffffffffffffffff1673ffffffffffffffffffffffffffffffffffffffff1614156108145760019150610826565b808060010191505061078f565b600091505b50919050565b610834610f5b565b60028054806020026020016040519081016040528092919081815260200182805480156108b657602002820191906000526020600020905b8160009054906101000a900473ffffffffffffffffffffffffffffffffffffffff1673ffffffffffffffffffffffffffffffffffffffff168152602001906001019080831161086c575b5050505050905090565b6108c8610f5b565b600180548060200260200160405190810160405280929190818152602001828054801561094a57602002820191906000526020600020905b8160009054906101000a900473ffffffffffffffffffffffffffffffffffffffff1673ffffffffffffffffffffffffffffffffffffffff1681526020019060010190808311610900575b5050505050905090565b60038181548110151561096357fe5b90600052602060002090016000915054906101000a900473ffffffffffffffffffffffffffffffffffffffff1681565b600460009054906101000a900473ffffffffffffffffffffffffffffffffffffffff1673ffffffffffffffffffffffffffffffffffffffff163373ffffffffffffffffffffffffffffffffffffffff161415156109ef57600080fd5b60038054806001018281610a039190610f2f565b9160005260206000209001600083909190916101000a81548173ffffffffffffffffffffffffffffffffffffffff021916908373ffffffffffffffffffffffffffffffffffffffff1602179055505050565b600081815481101515610a6457fe5b90600052602060002090016000915054906101000a900473ffffffffffffffffffffffffffffffffffffffff1681565b600460009054906101000a900473ffffffffffffffffffffffffffffffffffffffff1673ffffffffffffffffffffffffffffffffffffffff163373ffffffffffffffffffffffffffffffffffffffff16141515610af057600080fd5b60018054806001018281610b049190610f2f565b9160005260206000209001600083909190916101000a81548173ffffffffffffffffffffffffffffffffffffffff021916908373ffffffffffffffffffffffffffffffffffffffff1602179055505050565b600080600090505b60038054905060001015610bf0578273ffffffffffffffffffffffffffffffffffffffff16600382815481101515610b9257fe5b906000526020600020900160009054906101000a900473ffffffffffffffffffffffffffffffffffffffff1673ffffffffffffffffffffffffffffffffffffffff161415610be35760019150610bf5565b8080600101915050610b5e565b600091505b50919050565b610c03610f5b565b6003805480602002602001604051908101604052809291908181526020018280548015610c8557602002820191906000526020600020905b8160009054906101000a900473ffffffffffffffffffffffffffffffffffffffff1673ffffffffffffffffffffffffffffffffffffffff1681526020019060010190808311610c3b575b5050505050905090565b600460009054906101000a900473ffffffffffffffffffffffffffffffffffffffff1673ffffffffffffffffffffffffffffffffffffffff163373ffffffffffffffffffffffffffffffffffffffff16141515610ceb57600080fd5b60028054806001018281610cff9190610f2f565b9160005260206000209001600083909190916101000a81548173ffffffffffffffffffffffffffffffffffffffff021916908373ffffffffffffffffffffffffffffffffffffffff1602179055505050565b610d59610f5b565b6000805480602002602001604051908101604052809291908181526020018280548015610ddb57602002820191906000526020600020905b8160009054906101000a900473ffffffffffffffffffffffffffffffffffffffff1673ffffffffffffffffffffffffffffffffffffffff1681526020019060010190808311610d91575b5050505050905090565b600080600090505b60008054905060001015610e7f578273ffffffffffffffffffffffffffffffffffffffff16600082815481101515610e2157fe5b906000526020600020900160009054906101000a900473ffffffffffffffffffffffffffffffffffffffff1673ffffffffffffffffffffffffffffffffffffffff161415610e725760019150610e84565b8080600101915050610ded565b600091505b50919050565b600080600090505b60018054905060001015610f24578273ffffffffffffffffffffffffffffffffffffffff16600182815481101515610ec657fe5b906000526020600020900160009054906101000a900473ffffffffffffffffffffffffffffffffffffffff1673ffffffffffffffffffffffffffffffffffffffff161415610f175760019150610f29565b8080600101915050610e92565b600091505b50919050565b815481835581811511610f5657818360005260206000209182019101610f559190610f6f565b5b505050565b602060405190810160405280600081525090565b610f9191905b80821115610f8d576000816000905550600101610f75565b5090565b905600a165627a7a72305820a1ed6fd6f23c8b1d0cb3349e5d61da93439f24556398aebc5726fc6e41ad8ec00029",
  "source": "pragma solidity ^0.4.19;\r\n\r\n\r\ncontract AuthorityOracle {\r\n\r\n    address[] public producers;\r\n\r\n    address[] public authorized;\r\n\r\n    address[] public traders;\r\n\r\n    address[] public pharmacies;\r\n\r\n    address private owner;\r\n\r\n    function getProducers() public view returns(address[]) {\r\n        return producers;\r\n    }\r\n\r\n    function getAuthorized() public view returns(address[]) {\r\n        return authorized;\r\n    }\r\n\r\n    function getTraders() public view returns(address[]) {\r\n        return traders;\r\n    }\r\n\r\n    function getPharmacies() public view returns(address[]) {\r\n        return pharmacies;\r\n    }\r\n\r\n    function AuthorityOracle() public {\r\n        owner = msg.sender;\r\n        authorized.push(owner);\r\n    }\r\n\r\n    modifier isOwner() {\r\n        require(msg.sender == owner);\r\n        _;\r\n    }\r\n\r\n    function isAuthorized(address _address) view public returns(bool) {\r\n        for (uint i = 0; 0 < authorized.length; i++) {\r\n            if (authorized[i] == _address) {\r\n                return true;\r\n            }\r\n        }\r\n        return false;\r\n    }\r\n\r\n    function isProducer(address _address) view public returns(bool) {\r\n        for (uint i = 0; 0 < producers.length; i++) {\r\n            if (producers[i] == _address) {\r\n                return true;\r\n            }\r\n        }\r\n        return false;\r\n    }\r\n\r\n    function isTrader(address _address) view public returns(bool) {\r\n        for (uint i = 0; 0 < traders.length; i++) {\r\n            if (traders[i] == _address) {\r\n                return true;\r\n            }\r\n        }\r\n        return false;\r\n    }\r\n\r\n    function isPharmacy(address _address) view public returns(bool) {\r\n        for (uint i = 0; 0 < pharmacies.length; i++) {\r\n            if (pharmacies[i] == _address) {\r\n                return true;\r\n            }\r\n        }\r\n        return false;\r\n    }\r\n\r\n    function addToAuthorized(address _address) isOwner public {\r\n        authorized.push(_address);\r\n    }\r\n\r\n    function addToProducers(address _address) isOwner public {\r\n        producers.push(_address);\r\n    }\r\n\r\n    function addToTraders(address _address) isOwner public {\r\n        traders.push(_address);\r\n    }\r\n\r\n    function addToPharmacies(address _address) isOwner public {\r\n        pharmacies.push(_address);\r\n    }\r\n}\r\n",
  "sourcePath": "C:\\Projects\\solidity\\MedTrace\\contracts\\AuthorityOracle.sol",
  "compiler": {
    "name": "solc",
    "version": "0.4.19+commit.c4cbbb05.Emscripten.clang"
  },
  "schemaVersion": "2.0.0",
  "updatedAt": "2018-03-11T13:02:27.106Z"
}