{
  "contractName": "Medicine",
  "abi": [
    {
      "constant": true,
      "inputs": [],
      "name": "packSize",
      "outputs": [
        {
          "name": "",
          "type": "bytes7"
        }
      ],
      "payable": false,
      "stateMutability": "view",
      "type": "function"
    },
    {
      "constant": true,
      "inputs": [],
      "name": "name",
      "outputs": [
        {
          "name": "",
          "type": "bytes32"
        }
      ],
      "payable": false,
      "stateMutability": "view",
      "type": "function"
    },
    {
      "constant": true,
      "inputs": [
        {
          "name": "",
          "type": "bytes32"
        }
      ],
      "name": "documents",
      "outputs": [
        {
          "name": "",
          "type": "bytes32"
        }
      ],
      "payable": false,
      "stateMutability": "view",
      "type": "function"
    },
    {
      "constant": true,
      "inputs": [],
      "name": "producer",
      "outputs": [
        {
          "name": "",
          "type": "address"
        }
      ],
      "payable": false,
      "stateMutability": "view",
      "type": "function"
    },
    {
      "constant": true,
      "inputs": [],
      "name": "strength",
      "outputs": [
        {
          "name": "",
          "type": "bytes15"
        }
      ],
      "payable": false,
      "stateMutability": "view",
      "type": "function"
    },
    {
      "constant": true,
      "inputs": [],
      "name": "form",
      "outputs": [
        {
          "name": "",
          "type": "uint8"
        }
      ],
      "payable": false,
      "stateMutability": "view",
      "type": "function"
    },
    {
      "constant": true,
      "inputs": [],
      "name": "expirationDate",
      "outputs": [
        {
          "name": "",
          "type": "uint256"
        }
      ],
      "payable": false,
      "stateMutability": "view",
      "type": "function"
    },
    {
      "constant": true,
      "inputs": [],
      "name": "origin",
      "outputs": [
        {
          "name": "",
          "type": "bytes15"
        }
      ],
      "payable": false,
      "stateMutability": "view",
      "type": "function"
    },
    {
      "constant": true,
      "inputs": [],
      "name": "sellDateFromProducer",
      "outputs": [
        {
          "name": "",
          "type": "uint256"
        }
      ],
      "payable": false,
      "stateMutability": "view",
      "type": "function"
    },
    {
      "constant": true,
      "inputs": [],
      "name": "productionDate",
      "outputs": [
        {
          "name": "",
          "type": "uint256"
        }
      ],
      "payable": false,
      "stateMutability": "view",
      "type": "function"
    },
    {
      "constant": true,
      "inputs": [],
      "name": "currentOwner",
      "outputs": [
        {
          "name": "",
          "type": "address"
        }
      ],
      "payable": false,
      "stateMutability": "view",
      "type": "function"
    },
    {
      "constant": true,
      "inputs": [],
      "name": "batchNumber",
      "outputs": [
        {
          "name": "",
          "type": "bytes32"
        }
      ],
      "payable": false,
      "stateMutability": "view",
      "type": "function"
    },
    {
      "inputs": [],
      "payable": false,
      "stateMutability": "nonpayable",
      "type": "constructor"
    },
    {
      "constant": true,
      "inputs": [],
      "name": "getMedInfo",
      "outputs": [
        {
          "name": "currentOwner",
          "type": "address"
        },
        {
          "name": "producer",
          "type": "address"
        },
        {
          "name": "form",
          "type": "uint8"
        },
        {
          "name": "sellDate",
          "type": "uint256"
        },
        {
          "name": "name",
          "type": "bytes32"
        },
        {
          "name": "strength",
          "type": "bytes15"
        },
        {
          "name": "packSize",
          "type": "bytes7"
        },
        {
          "name": "batchNumber",
          "type": "bytes32"
        },
        {
          "name": "expirationDate",
          "type": "uint256"
        },
        {
          "name": "productionDate",
          "type": "uint256"
        },
        {
          "name": "origin",
          "type": "bytes15"
        },
        {
          "name": "price",
          "type": "uint256"
        }
      ],
      "payable": false,
      "stateMutability": "pure",
      "type": "function"
    },
    {
      "constant": true,
      "inputs": [],
      "name": "getPrice",
      "outputs": [
        {
          "name": "",
          "type": "uint256"
        }
      ],
      "payable": false,
      "stateMutability": "view",
      "type": "function"
    },
    {
      "constant": false,
      "inputs": [
        {
          "name": "_value",
          "type": "uint256"
        }
      ],
      "name": "setPrice",
      "outputs": [],
      "payable": false,
      "stateMutability": "nonpayable",
      "type": "function"
    },
    {
      "constant": false,
      "inputs": [
        {
          "name": "_value",
          "type": "uint8"
        }
      ],
      "name": "setSellPercent",
      "outputs": [],
      "payable": false,
      "stateMutability": "nonpayable",
      "type": "function"
    },
    {
      "constant": false,
      "inputs": [],
      "name": "buyMedicine",
      "outputs": [],
      "payable": true,
      "stateMutability": "payable",
      "type": "function"
    }
  ],
  "bytecode": "0x6060604052341561000f57600080fd5b33600160006101000a81548173ffffffffffffffffffffffffffffffffffffffff021916908373ffffffffffffffffffffffffffffffffffffffff160217905550336000806101000a81548173ffffffffffffffffffffffffffffffffffffffff021916908373ffffffffffffffffffffffffffffffffffffffff16021790555042600981905550610cb1806100a66000396000f3006060604052600436106100f1576000357c0100000000000000000000000000000000000000000000000000000000900463ffffffff16806306a628d4146100f657806306fdde0314610157578063094ebde6146101885780632b2805db146101925780632f89859b146101d557806337612672146101fb57806355b6c288146102505780635ee57413146102a15780638f620487146102d857806391b7f5ed14610301578063938b5f321461032457806394cc2adc1461037557806398d5fdca1461039e578063af648929146103c7578063b387ef92146103f0578063ba87306514610445578063e5ca311c14610476575b600080fd5b341561010157600080fd5b6101096105ea565b604051808278ffffffffffffffffffffffffffffffffffffffffffffffffff191678ffffffffffffffffffffffffffffffffffffffffffffffffff1916815260200191505060405180910390f35b341561016257600080fd5b61016a610616565b60405180826000191660001916815260200191505060405180910390f35b61019061061c565b005b341561019d57600080fd5b6101b7600480803560001916906020019091905050610969565b60405180826000191660001916815260200191505060405180910390f35b34156101e057600080fd5b6101f9600480803560ff16906020019091905050610981565b005b341561020657600080fd5b61020e6109fb565b604051808273ffffffffffffffffffffffffffffffffffffffff1673ffffffffffffffffffffffffffffffffffffffff16815260200191505060405180910390f35b341561025b57600080fd5b610263610a20565b604051808270ffffffffffffffffffffffffffffffffff191670ffffffffffffffffffffffffffffffffff1916815260200191505060405180910390f35b34156102ac57600080fd5b6102b4610a44565b604051808260048111156102c457fe5b60ff16815260200191505060405180910390f35b34156102e357600080fd5b6102eb610a57565b6040518082815260200191505060405180910390f35b341561030c57600080fd5b6103226004808035906020019091905050610a5d565b005b341561032f57600080fd5b610337610ac3565b604051808270ffffffffffffffffffffffffffffffffff191670ffffffffffffffffffffffffffffffffff1916815260200191505060405180910390f35b341561038057600080fd5b610388610ae7565b6040518082815260200191505060405180910390f35b34156103a957600080fd5b6103b1610aed565b6040518082815260200191505060405180910390f35b34156103d257600080fd5b6103da610b0b565b6040518082815260200191505060405180910390f35b34156103fb57600080fd5b610403610b11565b604051808273ffffffffffffffffffffffffffffffffffffffff1673ffffffffffffffffffffffffffffffffffffffff16815260200191505060405180910390f35b341561045057600080fd5b610458610b37565b60405180826000191660001916815260200191505060405180910390f35b341561048157600080fd5b610489610b3d565b604051808d73ffffffffffffffffffffffffffffffffffffffff1673ffffffffffffffffffffffffffffffffffffffff1681526020018c73ffffffffffffffffffffffffffffffffffffffff1673ffffffffffffffffffffffffffffffffffffffff1681526020018b60048111156104fd57fe5b60ff1681526020018a815260200189600019166000191681526020018870ffffffffffffffffffffffffffffffffff191670ffffffffffffffffffffffffffffffffff191681526020018778ffffffffffffffffffffffffffffffffffffffffffffffffff191678ffffffffffffffffffffffffffffffffffffffffffffffffff1916815260200186600019166000191681526020018581526020018481526020018370ffffffffffffffffffffffffffffffffff191670ffffffffffffffffffffffffffffffffff191681526020018281526020019c5050505050505050505050505060405180910390f35b6006600f9054906101000a90047901000000000000000000000000000000000000000000000000000281565b60055481565b610624610b81565b600160009054906101000a900473ffffffffffffffffffffffffffffffffffffffff1673ffffffffffffffffffffffffffffffffffffffff163373ffffffffffffffffffffffffffffffffffffffff161415151561068157600080fd5b610689610aed565b341015151561069757600080fd5b600160009054906101000a900473ffffffffffffffffffffffffffffffffffffffff1673ffffffffffffffffffffffffffffffffffffffff166108fc3073ffffffffffffffffffffffffffffffffffffffff16319081150290604051600060405180830381858888f19350505050151561071057600080fd5b6000809054906101000a900473ffffffffffffffffffffffffffffffffffffffff1673ffffffffffffffffffffffffffffffffffffffff16600160009054906101000a900473ffffffffffffffffffffffffffffffffffffffff1673ffffffffffffffffffffffffffffffffffffffff16141561078f57426004819055505b33816000019073ffffffffffffffffffffffffffffffffffffffff16908173ffffffffffffffffffffffffffffffffffffffff1681525050600160009054906101000a900473ffffffffffffffffffffffffffffffffffffffff16816020019073ffffffffffffffffffffffffffffffffffffffff16908173ffffffffffffffffffffffffffffffffffffffff1681525050610829610aed565b81604001818152505042816060018181525050600280548060010182816108509190610bd6565b9160005260206000209060040201600083909190915060008201518160000160006101000a81548173ffffffffffffffffffffffffffffffffffffffff021916908373ffffffffffffffffffffffffffffffffffffffff16021790555060208201518160010160006101000a81548173ffffffffffffffffffffffffffffffffffffffff021916908373ffffffffffffffffffffffffffffffffffffffff160217905550604082015181600201556060820151816003015550505033600160006101000a81548173ffffffffffffffffffffffffffffffffffffffff021916908373ffffffffffffffffffffffffffffffffffffffff16021790555061095c610957610aed565b610a5d565b6109666001610981565b50565b600d6020528060005260406000206000915090505481565b600160009054906101000a900473ffffffffffffffffffffffffffffffffffffffff1673ffffffffffffffffffffffffffffffffffffffff163373ffffffffffffffffffffffffffffffffffffffff161415156109dd57600080fd5b80600c60006101000a81548160ff021916908360ff16021790555050565b6000809054906101000a900473ffffffffffffffffffffffffffffffffffffffff1681565b600660009054906101000a9004710100000000000000000000000000000000000281565b600360009054906101000a900460ff1681565b60085481565b600160009054906101000a900473ffffffffffffffffffffffffffffffffffffffff1673ffffffffffffffffffffffffffffffffffffffff163373ffffffffffffffffffffffffffffffffffffffff16141515610ab957600080fd5b80600b8190555050565b600a60009054906101000a9004710100000000000000000000000000000000000281565b60045481565b6000600c60009054906101000a900460ff1660ff16600b5402905090565b60095481565b600160009054906101000a900473ffffffffffffffffffffffffffffffffffffffff1681565b60075481565b6000806000806000806000806000806000808b8b8b8b8b8b8b8b8b8b8b8b9b509b509b509b509b509b509b509b509b509b509b509b50909192939495969798999a9b565b608060405190810160405280600073ffffffffffffffffffffffffffffffffffffffff168152602001600073ffffffffffffffffffffffffffffffffffffffff16815260200160008152602001600081525090565b815481835581811511610c0357600402816004028360005260206000209182019101610c029190610c08565b5b505050565b610c8291905b80821115610c7e57600080820160006101000a81549073ffffffffffffffffffffffffffffffffffffffff02191690556001820160006101000a81549073ffffffffffffffffffffffffffffffffffffffff02191690556002820160009055600382016000905550600401610c0e565b5090565b905600a165627a7a72305820d9d68a485f724d213c1f80a5b2511c75b6975cf6bb5925a9c0c055bc15edfda70029",
  "source": "pragma solidity ^0.4.18;\r\n\r\n\r\ncontract Medicine {\r\n\r\n    enum Forms {\r\n        Powder,\r\n        Tablet,\r\n        Caps,\r\n        Vial,\r\n        InfusionForInjection\r\n    }\r\n\r\n    struct TransactionInfo {\r\n        address buyer;\r\n        address seller;\r\n        uint price;\r\n        uint date;\r\n    }\r\n\r\n    address public producer;\r\n\r\n    address public currentOwner;\r\n\r\n    TransactionInfo[] private transactions;\r\n\r\n    Forms public form;\r\n\r\n    uint public sellDateFromProducer;\r\n\r\n    bytes32 public name;\r\n\r\n    bytes15 public strength;\r\n\r\n    bytes7 public packSize;\r\n\r\n    bytes32 public batchNumber;\r\n\r\n    uint public expirationDate;\r\n\r\n    uint public productionDate;\r\n\r\n    bytes15 public origin;\r\n\r\n    uint private price;\r\n\r\n    uint8 private sellPercent;\r\n\r\n    mapping (bytes32 => bytes32) public documents;\r\n\r\n    function Medicine() public {\r\n        currentOwner = msg.sender;\r\n        producer = msg.sender;\r\n        productionDate = now;\r\n    }\r\n\r\n    function getMedInfo() public pure\r\n    returns(address currentOwner, address producer, Forms form, uint sellDate, bytes32 name, bytes15 strength, bytes7 packSize,\r\n        bytes32 batchNumber, uint expirationDate, uint productionDate, bytes15 origin, uint price) {\r\n        return (currentOwner, producer, form, sellDate, name, strength, packSize, batchNumber, expirationDate, productionDate, origin, price);\r\n    }\r\n\r\n    modifier isOwner() {\r\n        require(msg.sender == currentOwner);\r\n        _;\r\n    }\r\n\r\n    modifier canBuy() {\r\n        require(msg.sender != currentOwner);\r\n        require(msg.value >= getPrice());\r\n        _;\r\n    }\r\n\r\n    modifier isAthority() {\r\n        _;\r\n    }\r\n\r\n    modifier canDestroy() {\r\n        require(msg.sender == producer);\r\n        _;\r\n    }\r\n\r\n    function getPrice() view public returns(uint) {\r\n        return price * sellPercent;\r\n    }\r\n\r\n    function setPrice(uint _value) isOwner public {\r\n        price = _value;\r\n    }\r\n\r\n    function setSellPercent(uint8 _value) isOwner public {\r\n        sellPercent = _value;\r\n    }\r\n\r\n    function buyMedicine() canBuy() public payable  {\r\n        currentOwner.transfer(this.balance);\r\n        if (currentOwner == producer) {\r\n            sellDateFromProducer = now;\r\n        }\r\n        // add to history of transactions\r\n        TransactionInfo memory transaction;\r\n        transaction.buyer = msg.sender;\r\n        transaction.seller = currentOwner;\r\n        transaction.price = getPrice();\r\n        transaction.date = now;\r\n        transactions.push(transaction);\r\n        currentOwner = msg.sender;\r\n        setPrice(getPrice());\r\n        // new owner should not know the sell percent of previous owner\r\n        setSellPercent(1);\r\n    }\r\n\r\n    function destroy() private {\r\n        selfdestruct(currentOwner);\r\n    }\r\n}\r\n",
  "sourcePath": "C:\\Projects\\solidity\\MedTrace\\contracts\\Medicine.sol",
  "compiler": {
    "name": "solc",
    "version": "0.4.19+commit.c4cbbb05.Emscripten.clang"
  },
  "schemaVersion": "2.0.0",
  "updatedAt": "2018-03-06T19:39:22.072Z"
}