{
  "contractName": "Medicine",
  "abi": [
    {
      "constant": true,
      "inputs": [],
      "name": "name",
      "outputs": [
        {
          "name": "",
          "type": "string"
        }
      ],
      "payable": false,
      "stateMutability": "view",
      "type": "function"
    },
    {
      "constant": true,
      "inputs": [],
      "name": "producer",
      "outputs": [
        {
          "name": "",
          "type": "address"
        }
      ],
      "payable": false,
      "stateMutability": "view",
      "type": "function"
    },
    {
      "constant": true,
      "inputs": [],
      "name": "form",
      "outputs": [
        {
          "name": "",
          "type": "string"
        }
      ],
      "payable": false,
      "stateMutability": "view",
      "type": "function"
    },
    {
      "constant": true,
      "inputs": [],
      "name": "expirationDate",
      "outputs": [
        {
          "name": "",
          "type": "uint256"
        }
      ],
      "payable": false,
      "stateMutability": "view",
      "type": "function"
    },
    {
      "constant": true,
      "inputs": [],
      "name": "sellDateFromProducer",
      "outputs": [
        {
          "name": "",
          "type": "uint256"
        }
      ],
      "payable": false,
      "stateMutability": "view",
      "type": "function"
    },
    {
      "constant": true,
      "inputs": [],
      "name": "id",
      "outputs": [
        {
          "name": "",
          "type": "uint256"
        }
      ],
      "payable": false,
      "stateMutability": "view",
      "type": "function"
    },
    {
      "constant": true,
      "inputs": [],
      "name": "productionDate",
      "outputs": [
        {
          "name": "",
          "type": "uint256"
        }
      ],
      "payable": false,
      "stateMutability": "view",
      "type": "function"
    },
    {
      "constant": true,
      "inputs": [],
      "name": "currentOwner",
      "outputs": [
        {
          "name": "",
          "type": "address"
        }
      ],
      "payable": false,
      "stateMutability": "view",
      "type": "function"
    },
    {
      "constant": true,
      "inputs": [],
      "name": "batchNumber",
      "outputs": [
        {
          "name": "",
          "type": "uint256"
        }
      ],
      "payable": false,
      "stateMutability": "view",
      "type": "function"
    },
    {
      "inputs": [
        {
          "name": "_addressToCheck",
          "type": "address"
        },
        {
          "name": "_authorityOracle",
          "type": "address"
        },
        {
          "name": "_form",
          "type": "string"
        },
        {
          "name": "_name",
          "type": "string"
        },
        {
          "name": "_batchNumber",
          "type": "uint256"
        },
        {
          "name": "_id",
          "type": "uint256"
        },
        {
          "name": "_expirationDate",
          "type": "uint256"
        },
        {
          "name": "_price",
          "type": "uint256"
        },
        {
          "name": "_docHash",
          "type": "string"
        },
        {
          "name": "_docComment",
          "type": "string"
        }
      ],
      "payable": false,
      "stateMutability": "nonpayable",
      "type": "constructor"
    },
    {
      "constant": true,
      "inputs": [],
      "name": "getMedInfo",
      "outputs": [
        {
          "name": "",
          "type": "address"
        },
        {
          "name": "",
          "type": "address"
        },
        {
          "name": "",
          "type": "string"
        },
        {
          "name": "",
          "type": "string"
        },
        {
          "name": "",
          "type": "string"
        },
        {
          "name": "",
          "type": "string"
        },
        {
          "name": "",
          "type": "uint256"
        },
        {
          "name": "",
          "type": "uint256"
        },
        {
          "name": "",
          "type": "uint256"
        },
        {
          "name": "",
          "type": "uint256"
        },
        {
          "name": "",
          "type": "uint256"
        }
      ],
      "payable": false,
      "stateMutability": "view",
      "type": "function"
    },
    {
      "constant": true,
      "inputs": [],
      "name": "getPrice",
      "outputs": [
        {
          "name": "",
          "type": "uint256"
        }
      ],
      "payable": false,
      "stateMutability": "view",
      "type": "function"
    },
    {
      "constant": false,
      "inputs": [
        {
          "name": "_value",
          "type": "uint256"
        }
      ],
      "name": "setPrice",
      "outputs": [],
      "payable": false,
      "stateMutability": "nonpayable",
      "type": "function"
    },
    {
      "constant": false,
      "inputs": [
        {
          "name": "_value",
          "type": "uint8"
        }
      ],
      "name": "setSellPercent",
      "outputs": [],
      "payable": false,
      "stateMutability": "nonpayable",
      "type": "function"
    },
    {
      "constant": false,
      "inputs": [],
      "name": "buyMedicine",
      "outputs": [],
      "payable": true,
      "stateMutability": "payable",
      "type": "function"
    },
    {
      "constant": true,
      "inputs": [],
      "name": "getTransactions",
      "outputs": [
        {
          "name": "buyers",
          "type": "address[]"
        },
        {
          "name": "sellers",
          "type": "address[]"
        },
        {
          "name": "prices",
          "type": "uint256[]"
        },
        {
          "name": "dates",
          "type": "uint256[]"
        }
      ],
      "payable": false,
      "stateMutability": "view",
      "type": "function"
    }
  ],
  "bytecode": "0x606060405234156200001057600080fd5b604051620019ee380380620019ee83398101604052808051906020019091908051906020019091908051820191906020018051820191906020018051906020019091908051906020019091908051906020019091908051906020019091908051820191906020018051820191905050886000806101000a81548173ffffffffffffffffffffffffffffffffffffffff021916908373ffffffffffffffffffffffffffffffffffffffff1602179055506000809054906101000a900473ffffffffffffffffffffffffffffffffffffffff1673ffffffffffffffffffffffffffffffffffffffff1663f55210228b6000604051602001526040518263ffffffff167c0100000000000000000000000000000000000000000000000000000000028152600401808273ffffffffffffffffffffffffffffffffffffffff1673ffffffffffffffffffffffffffffffffffffffff168152602001915050602060405180830381600087803b15156200018457600080fd5b6102c65a03f115156200019657600080fd5b505050604051805190501515620001ac57600080fd5b89600260006101000a81548173ffffffffffffffffffffffffffffffffffffffff021916908373ffffffffffffffffffffffffffffffffffffffff16021790555089600160006101000a81548173ffffffffffffffffffffffffffffffffffffffff021916908373ffffffffffffffffffffffffffffffffffffffff16021790555042600a8190555087600490805190602001906200024d929190620002e1565b50866006908051906020019062000266929190620002e1565b5085600781905550846008819055508360098190555082600b819055506001600c60006101000a81548160ff021916908360ff16021790555081600d9080519060200190620002b7929190620002e1565b5080600e9080519060200190620002d0929190620002e1565b505050505050505050505062000390565b828054600181600116156101000203166002900490600052602060002090601f016020900481019282601f106200032457805160ff191683800117855562000355565b8280016001018555821562000355579182015b828111156200035457825182559160200191906001019062000337565b5b50905062000364919062000368565b5090565b6200038d91905b80821115620003895760008160009055506001016200036f565b5090565b90565b61164e80620003a06000396000f3006060604052600436106100db576000357c0100000000000000000000000000000000000000000000000000000000900463ffffffff16806306fdde03146100e0578063094ebde61461016e5780632f89859b14610178578063376126721461019e5780635ee57413146101f357806383920e90146102815780638f620487146103c357806391b7f5ed146103ec57806394cc2adc1461040f57806398d5fdca14610438578063af640d0f14610461578063af6489291461048a578063b387ef92146104b3578063ba87306514610508578063e5ca311c14610531575b600080fd5b34156100eb57600080fd5b6100f361078c565b6040518080602001828103825283818151815260200191508051906020019080838360005b83811015610133578082015181840152602081019050610118565b50505050905090810190601f1680156101605780820380516001836020036101000a031916815260200191505b509250505060405180910390f35b61017661082a565b005b341561018357600080fd5b61019c600480803560ff16906020019091905050610c84565b005b34156101a957600080fd5b6101b1610cfe565b604051808273ffffffffffffffffffffffffffffffffffffffff1673ffffffffffffffffffffffffffffffffffffffff16815260200191505060405180910390f35b34156101fe57600080fd5b610206610d24565b6040518080602001828103825283818151815260200191508051906020019080838360005b8381101561024657808201518184015260208101905061022b565b50505050905090810190601f1680156102735780820380516001836020036101000a031916815260200191505b509250505060405180910390f35b341561028c57600080fd5b610294610dc2565b6040518080602001806020018060200180602001858103855289818151815260200191508051906020019060200280838360005b838110156102e35780820151818401526020810190506102c8565b50505050905001858103845288818151815260200191508051906020019060200280838360005b8381101561032557808201518184015260208101905061030a565b50505050905001858103835287818151815260200191508051906020019060200280838360005b8381101561036757808201518184015260208101905061034c565b50505050905001858103825286818151815260200191508051906020019060200280838360005b838110156103a957808201518184015260208101905061038e565b505050509050019850505050505050505060405180910390f35b34156103ce57600080fd5b6103d66110ff565b6040518082815260200191505060405180910390f35b34156103f757600080fd5b61040d6004808035906020019091905050611105565b005b341561041a57600080fd5b61042261116b565b6040518082815260200191505060405180910390f35b341561044357600080fd5b61044b611171565b6040518082815260200191505060405180910390f35b341561046c57600080fd5b61047461118f565b6040518082815260200191505060405180910390f35b341561049557600080fd5b61049d611195565b6040518082815260200191505060405180910390f35b34156104be57600080fd5b6104c661119b565b604051808273ffffffffffffffffffffffffffffffffffffffff1673ffffffffffffffffffffffffffffffffffffffff16815260200191505060405180910390f35b341561051357600080fd5b61051b6111c1565b6040518082815260200191505060405180910390f35b341561053c57600080fd5b6105446111c7565b604051808c73ffffffffffffffffffffffffffffffffffffffff1673ffffffffffffffffffffffffffffffffffffffff1681526020018b73ffffffffffffffffffffffffffffffffffffffff1673ffffffffffffffffffffffffffffffffffffffff168152602001806020018060200180602001806020018a815260200189815260200188815260200187815260200186815260200185810385528e818151815260200191508051906020019080838360005b838110156106125780820151818401526020810190506105f7565b50505050905090810190601f16801561063f5780820380516001836020036101000a031916815260200191505b5085810384528d818151815260200191508051906020019080838360005b8381101561067857808201518184015260208101905061065d565b50505050905090810190601f1680156106a55780820380516001836020036101000a031916815260200191505b5085810383528c818151815260200191508051906020019080838360005b838110156106de5780820151818401526020810190506106c3565b50505050905090810190601f16801561070b5780820380516001836020036101000a031916815260200191505b5085810382528b818151815260200191508051906020019080838360005b83811015610744578082015181840152602081019050610729565b50505050905090810190601f1680156107715780820380516001836020036101000a031916815260200191505b509f5050505050505050505050505050505060405180910390f35b60068054600181600116156101000203166002900480601f0160208091040260200160405190810160405280929190818152602001828054600181600116156101000203166002900480156108225780601f106107f757610100808354040283529160200191610822565b820191906000526020600020905b81548152906001019060200180831161080557829003601f168201915b505050505081565b6108326114e2565b600260009054906101000a900473ffffffffffffffffffffffffffffffffffffffff1673ffffffffffffffffffffffffffffffffffffffff163373ffffffffffffffffffffffffffffffffffffffff161415151561088f57600080fd5b610897611171565b34101515156108a557600080fd5b600260009054906101000a900473ffffffffffffffffffffffffffffffffffffffff1673ffffffffffffffffffffffffffffffffffffffff166108fc3073ffffffffffffffffffffffffffffffffffffffff16319081150290604051600060405180830381858888f19350505050151561091e57600080fd5b600160009054906101000a900473ffffffffffffffffffffffffffffffffffffffff1673ffffffffffffffffffffffffffffffffffffffff16600260009054906101000a900473ffffffffffffffffffffffffffffffffffffffff1673ffffffffffffffffffffffffffffffffffffffff161415610aaa576000809054906101000a900473ffffffffffffffffffffffffffffffffffffffff1673ffffffffffffffffffffffffffffffffffffffff1663f5521022600260009054906101000a900473ffffffffffffffffffffffffffffffffffffffff166000604051602001526040518263ffffffff167c0100000000000000000000000000000000000000000000000000000000028152600401808273ffffffffffffffffffffffffffffffffffffffff1673ffffffffffffffffffffffffffffffffffffffff168152602001915050602060405180830381600087803b1515610a7c57600080fd5b6102c65a03f11515610a8d57600080fd5b505050604051805190501515610aa257600080fd5b426005819055505b33816000019073ffffffffffffffffffffffffffffffffffffffff16908173ffffffffffffffffffffffffffffffffffffffff1681525050600260009054906101000a900473ffffffffffffffffffffffffffffffffffffffff16816020019073ffffffffffffffffffffffffffffffffffffffff16908173ffffffffffffffffffffffffffffffffffffffff1681525050610b44611171565b8160400181815250504281606001818152505060038054806001018281610b6b9190611537565b9160005260206000209060040201600083909190915060008201518160000160006101000a81548173ffffffffffffffffffffffffffffffffffffffff021916908373ffffffffffffffffffffffffffffffffffffffff16021790555060208201518160010160006101000a81548173ffffffffffffffffffffffffffffffffffffffff021916908373ffffffffffffffffffffffffffffffffffffffff160217905550604082015181600201556060820151816003015550505033600260006101000a81548173ffffffffffffffffffffffffffffffffffffffff021916908373ffffffffffffffffffffffffffffffffffffffff160217905550610c77610c72611171565b611105565b610c816001610c84565b50565b600260009054906101000a900473ffffffffffffffffffffffffffffffffffffffff1673ffffffffffffffffffffffffffffffffffffffff163373ffffffffffffffffffffffffffffffffffffffff16141515610ce057600080fd5b80600c60006101000a81548160ff021916908360ff16021790555050565b600160009054906101000a900473ffffffffffffffffffffffffffffffffffffffff1681565b60048054600181600116156101000203166002900480601f016020809104026020016040519081016040528092919081815260200182805460018160011615610100020316600290048015610dba5780601f10610d8f57610100808354040283529160200191610dba565b820191906000526020600020905b815481529060010190602001808311610d9d57829003601f168201915b505050505081565b610dca611569565b610dd2611569565b610dda61157d565b610de261157d565b610dea611569565b610df2611569565b610dfa61157d565b610e0261157d565b600080336000809054906101000a900473ffffffffffffffffffffffffffffffffffffffff1673ffffffffffffffffffffffffffffffffffffffff1663fe9fbb80826000604051602001526040518263ffffffff167c0100000000000000000000000000000000000000000000000000000000028152600401808273ffffffffffffffffffffffffffffffffffffffff1673ffffffffffffffffffffffffffffffffffffffff168152602001915050602060405180830381600087803b1515610eca57600080fd5b6102c65a03f11515610edb57600080fd5b505050604051805190501515610ef057600080fd5b600380549050604051805910610f035750595b90808252806020026020018201604052509650600380549050604051805910610f295750595b90808252806020026020018201604052509550600380549050604051805910610f4f5750595b90808252806020026020018201604052509450600380549050604051805910610f755750595b90808252806020026020018201604052509350600092505b6003805490508310156110e657600383815481101515610fa957fe5b906000526020600020906004020191508160000160009054906101000a900473ffffffffffffffffffffffffffffffffffffffff168784815181101515610fec57fe5b9060200190602002019073ffffffffffffffffffffffffffffffffffffffff16908173ffffffffffffffffffffffffffffffffffffffff16815250508160010160009054906101000a900473ffffffffffffffffffffffffffffffffffffffff16868481518110151561105b57fe5b9060200190602002019073ffffffffffffffffffffffffffffffffffffffff16908173ffffffffffffffffffffffffffffffffffffffff1681525050816002015485848151811015156110aa57fe5b9060200190602002018181525050816003015484848151811015156110cb57fe5b90602001906020020181815250508280600101935050610f8d565b868686869a509a509a509a505050505050505090919293565b60095481565b600260009054906101000a900473ffffffffffffffffffffffffffffffffffffffff1673ffffffffffffffffffffffffffffffffffffffff163373ffffffffffffffffffffffffffffffffffffffff1614151561116157600080fd5b80600b8190555050565b60055481565b6000600c60009054906101000a900460ff1660ff16600b5402905090565b60085481565b600a5481565b600260009054906101000a900473ffffffffffffffffffffffffffffffffffffffff1681565b60075481565b6000806111d2611591565b6111da611591565b6111e2611591565b6111ea611591565b6000806000806000600260009054906101000a900473ffffffffffffffffffffffffffffffffffffffff16600160009054906101000a900473ffffffffffffffffffffffffffffffffffffffff1660046006600d600e600b54600954600a54600754600854888054600181600116156101000203166002900480601f0160208091040260200160405190810160405280929190818152602001828054600181600116156101000203166002900480156112e45780601f106112b9576101008083540402835291602001916112e4565b820191906000526020600020905b8154815290600101906020018083116112c757829003601f168201915b50505050509850878054600181600116156101000203166002900480601f0160208091040260200160405190810160405280929190818152602001828054600181600116156101000203166002900480156113805780601f1061135557610100808354040283529160200191611380565b820191906000526020600020905b81548152906001019060200180831161136357829003601f168201915b50505050509750868054600181600116156101000203166002900480601f01602080910402602001604051908101604052809291908181526020018280546001816001161561010002031660029004801561141c5780601f106113f15761010080835404028352916020019161141c565b820191906000526020600020905b8154815290600101906020018083116113ff57829003601f168201915b50505050509650858054600181600116156101000203166002900480601f0160208091040260200160405190810160405280929190818152602001828054600181600116156101000203166002900480156114b85780601f1061148d576101008083540402835291602001916114b8565b820191906000526020600020905b81548152906001019060200180831161149b57829003601f168201915b505050505095509a509a509a509a509a509a509a509a509a509a509a50909192939495969798999a565b608060405190810160405280600073ffffffffffffffffffffffffffffffffffffffff168152602001600073ffffffffffffffffffffffffffffffffffffffff16815260200160008152602001600081525090565b8154818355818115116115645760040281600402836000526020600020918201910161156391906115a5565b5b505050565b602060405190810160405280600081525090565b602060405190810160405280600081525090565b602060405190810160405280600081525090565b61161f91905b8082111561161b57600080820160006101000a81549073ffffffffffffffffffffffffffffffffffffffff02191690556001820160006101000a81549073ffffffffffffffffffffffffffffffffffffffff021916905560028201600090556003820160009055506004016115ab565b5090565b905600a165627a7a723058208c5e05122c1db0cb74752931fc865434cea08e55808c97b2a355294a1ba03f560029",
  "source": "pragma solidity ^0.4.19;\r\n\r\nimport \"./AuthorityOracle.sol\";\r\n\r\n\r\ncontract Medicine {\r\n\r\n    AuthorityOracle authorityOracle;\r\n\r\n    struct TransactionInfo {\r\n        address buyer;\r\n        address seller;\r\n        uint price;\r\n        uint date;\r\n    }\r\n\r\n    address public producer;\r\n\r\n    address public currentOwner;\r\n\r\n    TransactionInfo[] private transactions;\r\n\r\n    string public form;\r\n\r\n    uint public sellDateFromProducer;\r\n\r\n    string public name;\r\n\r\n    uint public batchNumber;\r\n\r\n    uint public id;\r\n\r\n    uint public expirationDate;\r\n\r\n    uint public productionDate;\r\n\r\n    uint private price;\r\n\r\n    uint8 private sellPercent;\r\n\r\n    string docHash;\r\n\r\n    string docComment;\r\n\r\n    function Medicine(address _addressToCheck, address _authorityOracle, string _form,\r\n        string _name, uint _batchNumber, uint _id, uint _expirationDate, uint _price,\r\n        string _docHash, string _docComment)\r\n    public {\r\n        authorityOracle = AuthorityOracle(_authorityOracle);\r\n        require(authorityOracle.isProducer(_addressToCheck));\r\n        currentOwner = _addressToCheck;\r\n        producer = _addressToCheck;\r\n        productionDate = now;\r\n        form = _form;\r\n        name = _name;\r\n        batchNumber = _batchNumber;\r\n        id = _id;\r\n        expirationDate = _expirationDate;\r\n        price = _price;\r\n        sellPercent = 1;\r\n        docHash = _docHash;\r\n        docComment = _docComment;\r\n    }\r\n\r\n    function getMedInfo() public view\r\n    returns (address, address, string, string, string, string, uint, uint, uint, uint, uint) {\r\n        return (currentOwner, producer, form, name, docHash, docComment, price, expirationDate, productionDate, batchNumber, id);\r\n    }\r\n\r\n    modifier isOwner() {\r\n        require(msg.sender == currentOwner);\r\n        _;\r\n    }\r\n\r\n    modifier canBuy() {\r\n        require(msg.sender != currentOwner);\r\n        require(msg.value >= getPrice());\r\n        _;\r\n    }\r\n\r\n    modifier canDestroy() {\r\n        require(msg.sender == producer);\r\n        _;\r\n    }\r\n\r\n    modifier isAuthorized(address _address) {\r\n        require(authorityOracle.isAuthorized(_address));\r\n        _;\r\n    }\r\n\r\n    function getPrice() view public returns (uint) {\r\n        return price * sellPercent;\r\n    }\r\n\r\n    function setPrice(uint _value) isOwner public {\r\n        price = _value;\r\n    }\r\n\r\n    function setSellPercent(uint8 _value) isOwner public {\r\n        sellPercent = _value;\r\n    }\r\n\r\n    function buyMedicine() canBuy() public payable {\r\n        currentOwner.transfer(this.balance);\r\n        if (currentOwner == producer) {\r\n            require(authorityOracle.isProducer(currentOwner));\r\n            sellDateFromProducer = now;\r\n        }\r\n        // add to history of transactions\r\n        TransactionInfo memory transaction;\r\n        transaction.buyer = msg.sender;\r\n        transaction.seller = currentOwner;\r\n        transaction.price = getPrice();\r\n        transaction.date = now;\r\n        transactions.push(transaction);\r\n        currentOwner = msg.sender;\r\n        setPrice(getPrice());\r\n        // new owner should not know the sell percent of previous owner\r\n        setSellPercent(1);\r\n    }\r\n\r\n    function getTransactions()\r\n    view public\r\n    isAuthorized(msg.sender)\r\n    returns (address[] buyers, address[] sellers, uint[] prices, uint[] dates) {\r\n\r\n        address[] memory _buyers = new address[](transactions.length);\r\n        address[] memory _sellers = new address[](transactions.length);\r\n        uint[] memory _prices = new uint[](transactions.length);\r\n        uint[] memory _dates = new uint[](transactions.length);\r\n\r\n        for (uint i = 0; i < transactions.length; i++) {\r\n            TransactionInfo storage transactionInfo = transactions[i];\r\n            _buyers[i] = transactionInfo.buyer;\r\n            _sellers[i] = transactionInfo.seller;\r\n            _prices[i] = transactionInfo.price;\r\n            _dates[i] = transactionInfo.date;\r\n        }\r\n\r\n        return (_buyers, _sellers, _prices, _dates);\r\n    }\r\n\r\n    function destroy() private {\r\n        selfdestruct(currentOwner);\r\n    }\r\n}\r\n",
  "sourcePath": "C:\\Projects\\solidity\\MedTrace\\contracts\\Medicine.sol",
  "compiler": {
    "name": "solc",
    "version": "0.4.19+commit.c4cbbb05.Emscripten.clang"
  },
  "schemaVersion": "2.0.0",
  "updatedAt": "2018-03-11T11:53:48.907Z"
}