{
  "contractName": "Medicine",
  "abi": [
    {
      "constant": true,
      "inputs": [],
      "name": "name",
      "outputs": [
        {
          "name": "",
          "type": "bytes32"
        }
      ],
      "payable": false,
      "stateMutability": "view",
      "type": "function"
    },
    {
      "constant": true,
      "inputs": [
        {
          "name": "",
          "type": "bytes32"
        }
      ],
      "name": "documents",
      "outputs": [
        {
          "name": "",
          "type": "bytes32"
        }
      ],
      "payable": false,
      "stateMutability": "view",
      "type": "function"
    },
    {
      "constant": true,
      "inputs": [],
      "name": "producer",
      "outputs": [
        {
          "name": "",
          "type": "address"
        }
      ],
      "payable": false,
      "stateMutability": "view",
      "type": "function"
    },
    {
      "constant": true,
      "inputs": [],
      "name": "form",
      "outputs": [
        {
          "name": "",
          "type": "uint8"
        }
      ],
      "payable": false,
      "stateMutability": "view",
      "type": "function"
    },
    {
      "constant": true,
      "inputs": [],
      "name": "expirationDate",
      "outputs": [
        {
          "name": "",
          "type": "uint256"
        }
      ],
      "payable": false,
      "stateMutability": "view",
      "type": "function"
    },
    {
      "constant": true,
      "inputs": [],
      "name": "sellDateFromProducer",
      "outputs": [
        {
          "name": "",
          "type": "uint256"
        }
      ],
      "payable": false,
      "stateMutability": "view",
      "type": "function"
    },
    {
      "constant": true,
      "inputs": [],
      "name": "id",
      "outputs": [
        {
          "name": "",
          "type": "bytes32"
        }
      ],
      "payable": false,
      "stateMutability": "view",
      "type": "function"
    },
    {
      "constant": true,
      "inputs": [],
      "name": "productionDate",
      "outputs": [
        {
          "name": "",
          "type": "uint256"
        }
      ],
      "payable": false,
      "stateMutability": "view",
      "type": "function"
    },
    {
      "constant": true,
      "inputs": [],
      "name": "currentOwner",
      "outputs": [
        {
          "name": "",
          "type": "address"
        }
      ],
      "payable": false,
      "stateMutability": "view",
      "type": "function"
    },
    {
      "constant": true,
      "inputs": [],
      "name": "batchNumber",
      "outputs": [
        {
          "name": "",
          "type": "bytes32"
        }
      ],
      "payable": false,
      "stateMutability": "view",
      "type": "function"
    },
    {
      "inputs": [
        {
          "name": "_addressToCheck",
          "type": "address"
        },
        {
          "name": "_authorityOracle",
          "type": "address"
        },
        {
          "name": "_form",
          "type": "uint8"
        },
        {
          "name": "_name",
          "type": "bytes32"
        },
        {
          "name": "_batchNumber",
          "type": "bytes32"
        },
        {
          "name": "_id",
          "type": "bytes32"
        },
        {
          "name": "_expirationDate",
          "type": "uint256"
        },
        {
          "name": "_price",
          "type": "uint256"
        }
      ],
      "payable": false,
      "stateMutability": "nonpayable",
      "type": "constructor"
    },
    {
      "constant": true,
      "inputs": [],
      "name": "getMedInfo",
      "outputs": [
        {
          "name": "_currentOwner",
          "type": "address"
        },
        {
          "name": "_producer",
          "type": "address"
        },
        {
          "name": "_form",
          "type": "uint8"
        },
        {
          "name": "_sellDate",
          "type": "uint256"
        },
        {
          "name": "_name",
          "type": "bytes32"
        },
        {
          "name": "_batchNumber",
          "type": "bytes32"
        },
        {
          "name": "_id",
          "type": "bytes32"
        },
        {
          "name": "_expirationDate",
          "type": "uint256"
        },
        {
          "name": "_productionDate",
          "type": "uint256"
        },
        {
          "name": "_price",
          "type": "uint256"
        }
      ],
      "payable": false,
      "stateMutability": "view",
      "type": "function"
    },
    {
      "constant": true,
      "inputs": [],
      "name": "getPrice",
      "outputs": [
        {
          "name": "",
          "type": "uint256"
        }
      ],
      "payable": false,
      "stateMutability": "view",
      "type": "function"
    },
    {
      "constant": false,
      "inputs": [
        {
          "name": "_value",
          "type": "uint256"
        }
      ],
      "name": "setPrice",
      "outputs": [],
      "payable": false,
      "stateMutability": "nonpayable",
      "type": "function"
    },
    {
      "constant": false,
      "inputs": [
        {
          "name": "_value",
          "type": "uint8"
        }
      ],
      "name": "setSellPercent",
      "outputs": [],
      "payable": false,
      "stateMutability": "nonpayable",
      "type": "function"
    },
    {
      "constant": false,
      "inputs": [],
      "name": "buyMedicine",
      "outputs": [],
      "payable": true,
      "stateMutability": "payable",
      "type": "function"
    },
    {
      "constant": true,
      "inputs": [],
      "name": "getTransactions",
      "outputs": [
        {
          "name": "buyers",
          "type": "address[]"
        },
        {
          "name": "sellers",
          "type": "address[]"
        },
        {
          "name": "prices",
          "type": "uint256[]"
        },
        {
          "name": "dates",
          "type": "uint256[]"
        }
      ],
      "payable": false,
      "stateMutability": "view",
      "type": "function"
    },
    {
      "constant": false,
      "inputs": [
        {
          "name": "fileHash",
          "type": "bytes32"
        },
        {
          "name": "fileComments",
          "type": "bytes32"
        }
      ],
      "name": "addDocuments",
      "outputs": [],
      "payable": false,
      "stateMutability": "nonpayable",
      "type": "function"
    }
  ],
  "bytecode": "0x6060604052341561000f57600080fd5b6040516101008061144983398101604052808051906020019091908051906020019091908051906020019091908051906020019091908051906020019091908051906020019091908051906020019091908051906020019091905050866000806101000a81548173ffffffffffffffffffffffffffffffffffffffff021916908373ffffffffffffffffffffffffffffffffffffffff1602179055506000809054906101000a900473ffffffffffffffffffffffffffffffffffffffff1673ffffffffffffffffffffffffffffffffffffffff1663f5521022896000604051602001526040518263ffffffff167c0100000000000000000000000000000000000000000000000000000000028152600401808273ffffffffffffffffffffffffffffffffffffffff1673ffffffffffffffffffffffffffffffffffffffff168152602001915050602060405180830381600087803b151561016f57600080fd5b6102c65a03f1151561018057600080fd5b50505060405180519050151561019557600080fd5b33600260006101000a81548173ffffffffffffffffffffffffffffffffffffffff021916908373ffffffffffffffffffffffffffffffffffffffff16021790555033600160006101000a81548173ffffffffffffffffffffffffffffffffffffffff021916908373ffffffffffffffffffffffffffffffffffffffff16021790555042600a8190555085600460006101000a81548160ff0219169083600481111561023c57fe5b02179055508460068160001916905550836007816000191690555082600881600019169055508160098190555080600b819055506001600c60006101000a81548160ff021916908360ff16021790555050505050505050506111a6806102a36000396000f3006060604052600436106100f1576000357c0100000000000000000000000000000000000000000000000000000000900463ffffffff16806306fdde03146100f6578063094ebde6146101275780632b2805db146101315780632f89859b14610174578063376126721461019a5780635ee57413146101ef57806383920e90146102265780638f6204871461036857806391b7f5ed1461039157806394cc2adc146103b457806398d5fdca146103dd578063af640d0f14610406578063af64892914610437578063b387ef9214610460578063ba873065146104b5578063c1375a1c146104e6578063e5ca311c1461051a575b600080fd5b341561010157600080fd5b610109610600565b60405180826000191660001916815260200191505060405180910390f35b61012f610606565b005b341561013c57600080fd5b610156600480803560001916906020019091905050610a60565b60405180826000191660001916815260200191505060405180910390f35b341561017f57600080fd5b610198600480803560ff16906020019091905050610a78565b005b34156101a557600080fd5b6101ad610af2565b604051808273ffffffffffffffffffffffffffffffffffffffff1673ffffffffffffffffffffffffffffffffffffffff16815260200191505060405180910390f35b34156101fa57600080fd5b610202610b18565b6040518082600481111561021257fe5b60ff16815260200191505060405180910390f35b341561023157600080fd5b610239610b2b565b6040518080602001806020018060200180602001858103855289818151815260200191508051906020019060200280838360005b8381101561028857808201518184015260208101905061026d565b50505050905001858103845288818151815260200191508051906020019060200280838360005b838110156102ca5780820151818401526020810190506102af565b50505050905001858103835287818151815260200191508051906020019060200280838360005b8381101561030c5780820151818401526020810190506102f1565b50505050905001858103825286818151815260200191508051906020019060200280838360005b8381101561034e578082015181840152602081019050610333565b505050509050019850505050505050505060405180910390f35b341561037357600080fd5b61037b610e68565b6040518082815260200191505060405180910390f35b341561039c57600080fd5b6103b26004808035906020019091905050610e6e565b005b34156103bf57600080fd5b6103c7610ed4565b6040518082815260200191505060405180910390f35b34156103e857600080fd5b6103f0610eda565b6040518082815260200191505060405180910390f35b341561041157600080fd5b610419610ef8565b60405180826000191660001916815260200191505060405180910390f35b341561044257600080fd5b61044a610efe565b6040518082815260200191505060405180910390f35b341561046b57600080fd5b610473610f04565b604051808273ffffffffffffffffffffffffffffffffffffffff1673ffffffffffffffffffffffffffffffffffffffff16815260200191505060405180910390f35b34156104c057600080fd5b6104c8610f2a565b60405180826000191660001916815260200191505060405180910390f35b34156104f157600080fd5b61051860048080356000191690602001909190803560001916906020019091905050610f30565b005b341561052557600080fd5b61052d610fb4565b604051808b73ffffffffffffffffffffffffffffffffffffffff1673ffffffffffffffffffffffffffffffffffffffff1681526020018a73ffffffffffffffffffffffffffffffffffffffff1673ffffffffffffffffffffffffffffffffffffffff1681526020018960048111156105a157fe5b60ff1681526020018881526020018760001916600019168152602001866000191660001916815260200185600019166000191681526020018481526020018381526020018281526020019a505050505050505050505060405180910390f35b60065481565b61060e61104e565b600260009054906101000a900473ffffffffffffffffffffffffffffffffffffffff1673ffffffffffffffffffffffffffffffffffffffff163373ffffffffffffffffffffffffffffffffffffffff161415151561066b57600080fd5b610673610eda565b341015151561068157600080fd5b600260009054906101000a900473ffffffffffffffffffffffffffffffffffffffff1673ffffffffffffffffffffffffffffffffffffffff166108fc3073ffffffffffffffffffffffffffffffffffffffff16319081150290604051600060405180830381858888f1935050505015156106fa57600080fd5b600160009054906101000a900473ffffffffffffffffffffffffffffffffffffffff1673ffffffffffffffffffffffffffffffffffffffff16600260009054906101000a900473ffffffffffffffffffffffffffffffffffffffff1673ffffffffffffffffffffffffffffffffffffffff161415610886576000809054906101000a900473ffffffffffffffffffffffffffffffffffffffff1673ffffffffffffffffffffffffffffffffffffffff1663f5521022600260009054906101000a900473ffffffffffffffffffffffffffffffffffffffff166000604051602001526040518263ffffffff167c0100000000000000000000000000000000000000000000000000000000028152600401808273ffffffffffffffffffffffffffffffffffffffff1673ffffffffffffffffffffffffffffffffffffffff168152602001915050602060405180830381600087803b151561085857600080fd5b6102c65a03f1151561086957600080fd5b50505060405180519050151561087e57600080fd5b426005819055505b33816000019073ffffffffffffffffffffffffffffffffffffffff16908173ffffffffffffffffffffffffffffffffffffffff1681525050600260009054906101000a900473ffffffffffffffffffffffffffffffffffffffff16816020019073ffffffffffffffffffffffffffffffffffffffff16908173ffffffffffffffffffffffffffffffffffffffff1681525050610920610eda565b816040018181525050428160600181815250506003805480600101828161094791906110a3565b9160005260206000209060040201600083909190915060008201518160000160006101000a81548173ffffffffffffffffffffffffffffffffffffffff021916908373ffffffffffffffffffffffffffffffffffffffff16021790555060208201518160010160006101000a81548173ffffffffffffffffffffffffffffffffffffffff021916908373ffffffffffffffffffffffffffffffffffffffff160217905550604082015181600201556060820151816003015550505033600260006101000a81548173ffffffffffffffffffffffffffffffffffffffff021916908373ffffffffffffffffffffffffffffffffffffffff160217905550610a53610a4e610eda565b610e6e565b610a5d6001610a78565b50565b600d6020528060005260406000206000915090505481565b600260009054906101000a900473ffffffffffffffffffffffffffffffffffffffff1673ffffffffffffffffffffffffffffffffffffffff163373ffffffffffffffffffffffffffffffffffffffff16141515610ad457600080fd5b80600c60006101000a81548160ff021916908360ff16021790555050565b600160009054906101000a900473ffffffffffffffffffffffffffffffffffffffff1681565b600460009054906101000a900460ff1681565b610b336110d5565b610b3b6110d5565b610b436110e9565b610b4b6110e9565b610b536110d5565b610b5b6110d5565b610b636110e9565b610b6b6110e9565b600080336000809054906101000a900473ffffffffffffffffffffffffffffffffffffffff1673ffffffffffffffffffffffffffffffffffffffff1663fe9fbb80826000604051602001526040518263ffffffff167c0100000000000000000000000000000000000000000000000000000000028152600401808273ffffffffffffffffffffffffffffffffffffffff1673ffffffffffffffffffffffffffffffffffffffff168152602001915050602060405180830381600087803b1515610c3357600080fd5b6102c65a03f11515610c4457600080fd5b505050604051805190501515610c5957600080fd5b600380549050604051805910610c6c5750595b90808252806020026020018201604052509650600380549050604051805910610c925750595b90808252806020026020018201604052509550600380549050604051805910610cb85750595b90808252806020026020018201604052509450600380549050604051805910610cde5750595b90808252806020026020018201604052509350600092505b600380549050831015610e4f57600383815481101515610d1257fe5b906000526020600020906004020191508160000160009054906101000a900473ffffffffffffffffffffffffffffffffffffffff168784815181101515610d5557fe5b9060200190602002019073ffffffffffffffffffffffffffffffffffffffff16908173ffffffffffffffffffffffffffffffffffffffff16815250508160010160009054906101000a900473ffffffffffffffffffffffffffffffffffffffff168684815181101515610dc457fe5b9060200190602002019073ffffffffffffffffffffffffffffffffffffffff16908173ffffffffffffffffffffffffffffffffffffffff168152505081600201548584815181101515610e1357fe5b906020019060200201818152505081600301548484815181101515610e3457fe5b90602001906020020181815250508280600101935050610cf6565b868686869a509a509a509a505050505050505090919293565b60095481565b600260009054906101000a900473ffffffffffffffffffffffffffffffffffffffff1673ffffffffffffffffffffffffffffffffffffffff163373ffffffffffffffffffffffffffffffffffffffff16141515610eca57600080fd5b80600b8190555050565b60055481565b6000600c60009054906101000a900460ff1660ff16600b5402905090565b60085481565b600a5481565b600260009054906101000a900473ffffffffffffffffffffffffffffffffffffffff1681565b60075481565b600260009054906101000a900473ffffffffffffffffffffffffffffffffffffffff1673ffffffffffffffffffffffffffffffffffffffff163373ffffffffffffffffffffffffffffffffffffffff16141515610f8c57600080fd5b80600d6000846000191660001916815260200190815260200160002081600019169055505050565b600080600080600080600080600080600260009054906101000a900473ffffffffffffffffffffffffffffffffffffffff16600160009054906101000a900473ffffffffffffffffffffffffffffffffffffffff16600460009054906101000a900460ff16600554600654600754600854600954600a54600b54995099509950995099509950995099509950995090919293949596979899565b608060405190810160405280600073ffffffffffffffffffffffffffffffffffffffff168152602001600073ffffffffffffffffffffffffffffffffffffffff16815260200160008152602001600081525090565b8154818355818115116110d0576004028160040283600052602060002091820191016110cf91906110fd565b5b505050565b602060405190810160405280600081525090565b602060405190810160405280600081525090565b61117791905b8082111561117357600080820160006101000a81549073ffffffffffffffffffffffffffffffffffffffff02191690556001820160006101000a81549073ffffffffffffffffffffffffffffffffffffffff02191690556002820160009055600382016000905550600401611103565b5090565b905600a165627a7a72305820940085521f2059fdb708b09075853d390875089a78b7cb58f1807f70c44d4e2e0029",
  "source": "pragma solidity ^0.4.18;\r\n\r\nimport \"./AuthorityOracle.sol\";\r\n\r\n\r\ncontract Medicine {\r\n\r\n    AuthorityOracle authorityOracle;\r\n\r\n    enum Forms {\r\n        Powder,\r\n        Tablet,\r\n        Caps,\r\n        Vial,\r\n        InfusionForInjection\r\n    }\r\n\r\n    struct TransactionInfo {\r\n        address buyer;\r\n        address seller;\r\n        uint price;\r\n        uint date;\r\n    }\r\n\r\n    address public producer;\r\n\r\n    address public currentOwner;\r\n\r\n    TransactionInfo[] private transactions;\r\n\r\n    Forms public form;\r\n\r\n    uint public sellDateFromProducer;\r\n\r\n    bytes32 public name;\r\n\r\n    bytes32 public batchNumber;\r\n\r\n    bytes32 public id;\r\n\r\n    uint public expirationDate;\r\n\r\n    uint public productionDate;\r\n\r\n    uint private price;\r\n\r\n    uint8 private sellPercent;\r\n\r\n    mapping (bytes32 => bytes32) public documents;\r\n\r\n    function Medicine(address _addressToCheck, address _authorityOracle, Forms _form,\r\n        bytes32 _name, bytes32 _batchNumber, bytes32 _id, uint _expirationDate, uint _price)\r\n    public {\r\n        authorityOracle = AuthorityOracle(_authorityOracle);\r\n        require(authorityOracle.isProducer(_addressToCheck));\r\n        currentOwner = msg.sender;\r\n        producer = msg.sender;\r\n        productionDate = now;\r\n        form = _form;\r\n        name = _name;\r\n        batchNumber = _batchNumber;\r\n        id = _id;\r\n        expirationDate = _expirationDate;\r\n        price = _price;\r\n        sellPercent = 1;\r\n    }\r\n\r\n    function getMedInfo() public view\r\n    returns(address _currentOwner, address _producer, Forms _form, uint _sellDate, bytes32 _name,\r\n        bytes32 _batchNumber, bytes32 _id, uint _expirationDate, uint _productionDate, uint _price) {\r\n        return (currentOwner, producer, form, sellDateFromProducer, name, batchNumber, id, expirationDate, productionDate, price);\r\n    }\r\n\r\n    modifier isOwner() {\r\n        require(msg.sender == currentOwner);\r\n        _;\r\n    }\r\n\r\n    modifier canBuy() {\r\n        require(msg.sender != currentOwner);\r\n        require(msg.value >= getPrice());\r\n        _;\r\n    }\r\n\r\n    modifier canDestroy() {\r\n        require(msg.sender == producer);\r\n        _;\r\n    }\r\n\r\n    modifier isAuthorized(address _address) {\r\n        require(authorityOracle.isAuthorized(_address));\r\n        _;\r\n    }\r\n\r\n    function getPrice() view public returns(uint) {\r\n        return price * sellPercent;\r\n    }\r\n\r\n    function setPrice(uint _value) isOwner public {\r\n        price = _value;\r\n    }\r\n\r\n    function setSellPercent(uint8 _value) isOwner public {\r\n        sellPercent = _value;\r\n    }\r\n\r\n    function buyMedicine() canBuy() public payable  {\r\n        currentOwner.transfer(this.balance);\r\n        if (currentOwner == producer) {\r\n            require(authorityOracle.isProducer(currentOwner));\r\n            sellDateFromProducer = now;\r\n        }\r\n        // add to history of transactions\r\n        TransactionInfo memory transaction;\r\n        transaction.buyer = msg.sender;\r\n        transaction.seller = currentOwner;\r\n        transaction.price = getPrice();\r\n        transaction.date = now;\r\n        transactions.push(transaction);\r\n        currentOwner = msg.sender;\r\n        setPrice(getPrice());\r\n        // new owner should not know the sell percent of previous owner\r\n        setSellPercent(1);\r\n    }\r\n\r\n    function getTransactions()\r\n    view public\r\n    isAuthorized(msg.sender)\r\n    returns(address[] buyers, address[] sellers, uint[] prices, uint[] dates) {\r\n\r\n        address[] memory _buyers = new address[](transactions.length);\r\n        address[] memory _sellers = new address[](transactions.length);\r\n        uint[] memory _prices = new uint[](transactions.length);\r\n        uint[] memory _dates = new uint[](transactions.length);\r\n\r\n        for (uint i = 0; i < transactions.length; i++) {\r\n            TransactionInfo storage transactionInfo = transactions[i];\r\n            _buyers[i] = transactionInfo.buyer;\r\n            _sellers[i] = transactionInfo.seller;\r\n            _prices[i] = transactionInfo.price;\r\n            _dates[i] = transactionInfo.date;\r\n        }\r\n\r\n        return (_buyers, _sellers, _prices, _dates);\r\n    }\r\n\r\n    function addDocuments(bytes32 fileHash, bytes32 fileComments) isOwner public {\r\n        documents[fileHash] = fileComments;\r\n    }\r\n\r\n    function destroy() private {\r\n        selfdestruct(currentOwner);\r\n    }\r\n}\r\n",
  "sourcePath": "C:\\Projects\\solidity\\MedTrace\\contracts\\Medicine.sol",
  "compiler": {
    "name": "solc",
    "version": "0.4.19+commit.c4cbbb05.Emscripten.clang"
  },
  "schemaVersion": "2.0.0",
  "updatedAt": "2018-03-07T19:52:48.928Z"
}