{
  "contractName": "Medicine",
  "abi": [
    {
      "constant": true,
      "inputs": [],
      "name": "name",
      "outputs": [
        {
          "name": "",
          "type": "bytes32"
        }
      ],
      "payable": false,
      "stateMutability": "view",
      "type": "function"
    },
    {
      "constant": true,
      "inputs": [],
      "name": "producer",
      "outputs": [
        {
          "name": "",
          "type": "address"
        }
      ],
      "payable": false,
      "stateMutability": "view",
      "type": "function"
    },
    {
      "constant": true,
      "inputs": [],
      "name": "form",
      "outputs": [
        {
          "name": "",
          "type": "bytes16"
        }
      ],
      "payable": false,
      "stateMutability": "view",
      "type": "function"
    },
    {
      "constant": true,
      "inputs": [],
      "name": "expirationDate",
      "outputs": [
        {
          "name": "",
          "type": "uint256"
        }
      ],
      "payable": false,
      "stateMutability": "view",
      "type": "function"
    },
    {
      "constant": true,
      "inputs": [],
      "name": "sellDateFromProducer",
      "outputs": [
        {
          "name": "",
          "type": "uint256"
        }
      ],
      "payable": false,
      "stateMutability": "view",
      "type": "function"
    },
    {
      "constant": true,
      "inputs": [],
      "name": "id",
      "outputs": [
        {
          "name": "",
          "type": "bytes32"
        }
      ],
      "payable": false,
      "stateMutability": "view",
      "type": "function"
    },
    {
      "constant": true,
      "inputs": [],
      "name": "productionDate",
      "outputs": [
        {
          "name": "",
          "type": "uint256"
        }
      ],
      "payable": false,
      "stateMutability": "view",
      "type": "function"
    },
    {
      "constant": true,
      "inputs": [],
      "name": "currentOwner",
      "outputs": [
        {
          "name": "",
          "type": "address"
        }
      ],
      "payable": false,
      "stateMutability": "view",
      "type": "function"
    },
    {
      "constant": true,
      "inputs": [],
      "name": "batchNumber",
      "outputs": [
        {
          "name": "",
          "type": "bytes32"
        }
      ],
      "payable": false,
      "stateMutability": "view",
      "type": "function"
    },
    {
      "inputs": [
        {
          "name": "_addressToCheck",
          "type": "address"
        },
        {
          "name": "_authorityOracle",
          "type": "address"
        },
        {
          "name": "_form",
          "type": "bytes16"
        },
        {
          "name": "_name",
          "type": "bytes32"
        },
        {
          "name": "_batchNumber",
          "type": "bytes32"
        },
        {
          "name": "_id",
          "type": "bytes32"
        },
        {
          "name": "_expirationDate",
          "type": "uint256"
        },
        {
          "name": "_price",
          "type": "uint256"
        },
        {
          "name": "_docHash",
          "type": "bytes32"
        },
        {
          "name": "_docComment",
          "type": "bytes32"
        }
      ],
      "payable": false,
      "stateMutability": "nonpayable",
      "type": "constructor"
    },
    {
      "constant": true,
      "inputs": [],
      "name": "getMedInfo",
      "outputs": [
        {
          "name": "_currentOwner",
          "type": "address"
        },
        {
          "name": "_producer",
          "type": "address"
        },
        {
          "name": "_form",
          "type": "bytes16"
        },
        {
          "name": "_sellDate",
          "type": "uint256"
        },
        {
          "name": "_name",
          "type": "bytes32"
        },
        {
          "name": "_batchNumber",
          "type": "bytes32"
        },
        {
          "name": "_id",
          "type": "bytes32"
        },
        {
          "name": "_expirationDate",
          "type": "uint256"
        },
        {
          "name": "_productionDate",
          "type": "uint256"
        },
        {
          "name": "_price",
          "type": "uint256"
        },
        {
          "name": "_docHash",
          "type": "bytes32"
        },
        {
          "name": "_docComment",
          "type": "bytes32"
        }
      ],
      "payable": false,
      "stateMutability": "view",
      "type": "function"
    },
    {
      "constant": true,
      "inputs": [],
      "name": "getPrice",
      "outputs": [
        {
          "name": "",
          "type": "uint256"
        }
      ],
      "payable": false,
      "stateMutability": "view",
      "type": "function"
    },
    {
      "constant": false,
      "inputs": [
        {
          "name": "_value",
          "type": "uint256"
        }
      ],
      "name": "setPrice",
      "outputs": [],
      "payable": false,
      "stateMutability": "nonpayable",
      "type": "function"
    },
    {
      "constant": false,
      "inputs": [
        {
          "name": "_value",
          "type": "uint8"
        }
      ],
      "name": "setSellPercent",
      "outputs": [],
      "payable": false,
      "stateMutability": "nonpayable",
      "type": "function"
    },
    {
      "constant": false,
      "inputs": [],
      "name": "buyMedicine",
      "outputs": [],
      "payable": true,
      "stateMutability": "payable",
      "type": "function"
    },
    {
      "constant": true,
      "inputs": [],
      "name": "getTransactions",
      "outputs": [
        {
          "name": "buyers",
          "type": "address[]"
        },
        {
          "name": "sellers",
          "type": "address[]"
        },
        {
          "name": "prices",
          "type": "uint256[]"
        },
        {
          "name": "dates",
          "type": "uint256[]"
        }
      ],
      "payable": false,
      "stateMutability": "view",
      "type": "function"
    }
  ],
  "bytecode": "0x6060604052341561000f57600080fd5b604051610140806113df83398101604052808051906020019091908051906020019091908051906020019091908051906020019091908051906020019091908051906020019091908051906020019091908051906020019091908051906020019091908051906020019091905050886000806101000a81548173ffffffffffffffffffffffffffffffffffffffff021916908373ffffffffffffffffffffffffffffffffffffffff1602179055506000809054906101000a900473ffffffffffffffffffffffffffffffffffffffff1673ffffffffffffffffffffffffffffffffffffffff1663f55210228b6000604051602001526040518263ffffffff167c0100000000000000000000000000000000000000000000000000000000028152600401808273ffffffffffffffffffffffffffffffffffffffff1673ffffffffffffffffffffffffffffffffffffffff168152602001915050602060405180830381600087803b151561018157600080fd5b6102c65a03f1151561019257600080fd5b5050506040518051905015156101a757600080fd5b33600260006101000a81548173ffffffffffffffffffffffffffffffffffffffff021916908373ffffffffffffffffffffffffffffffffffffffff16021790555033600160006101000a81548173ffffffffffffffffffffffffffffffffffffffff021916908373ffffffffffffffffffffffffffffffffffffffff16021790555042600a8190555087600460006101000a8154816fffffffffffffffffffffffffffffffff0219169083700100000000000000000000000000000000900402179055508660068160001916905550856007816000191690555084600881600019169055508360098190555082600b819055506001600c60006101000a81548160ff021916908360ff16021790555081600d816000191690555080600e8160001916905550505050505050505050506110fa806102e56000396000f3006060604052600436106100db576000357c0100000000000000000000000000000000000000000000000000000000900463ffffffff16806306fdde03146100e0578063094ebde6146101115780632f89859b1461011b57806337612672146101415780635ee574131461019657806383920e90146101e55780638f6204871461032757806391b7f5ed1461035057806394cc2adc1461037357806398d5fdca1461039c578063af640d0f146103c5578063af648929146103f6578063b387ef921461041f578063ba87306514610474578063e5ca311c146104a5575b600080fd5b34156100eb57600080fd5b6100f36105c1565b60405180826000191660001916815260200191505060405180910390f35b6101196105c7565b005b341561012657600080fd5b61013f600480803560ff16906020019091905050610a21565b005b341561014c57600080fd5b610154610a9b565b604051808273ffffffffffffffffffffffffffffffffffffffff1673ffffffffffffffffffffffffffffffffffffffff16815260200191505060405180910390f35b34156101a157600080fd5b6101a9610ac1565b60405180826fffffffffffffffffffffffffffffffff19166fffffffffffffffffffffffffffffffff1916815260200191505060405180910390f35b34156101f057600080fd5b6101f8610ae4565b6040518080602001806020018060200180602001858103855289818151815260200191508051906020019060200280838360005b8381101561024757808201518184015260208101905061022c565b50505050905001858103845288818151815260200191508051906020019060200280838360005b8381101561028957808201518184015260208101905061026e565b50505050905001858103835287818151815260200191508051906020019060200280838360005b838110156102cb5780820151818401526020810190506102b0565b50505050905001858103825286818151815260200191508051906020019060200280838360005b8381101561030d5780820151818401526020810190506102f2565b505050509050019850505050505050505060405180910390f35b341561033257600080fd5b61033a610e21565b6040518082815260200191505060405180910390f35b341561035b57600080fd5b6103716004808035906020019091905050610e27565b005b341561037e57600080fd5b610386610e8d565b6040518082815260200191505060405180910390f35b34156103a757600080fd5b6103af610e93565b6040518082815260200191505060405180910390f35b34156103d057600080fd5b6103d8610eb1565b60405180826000191660001916815260200191505060405180910390f35b341561040157600080fd5b610409610eb7565b6040518082815260200191505060405180910390f35b341561042a57600080fd5b610432610ebd565b604051808273ffffffffffffffffffffffffffffffffffffffff1673ffffffffffffffffffffffffffffffffffffffff16815260200191505060405180910390f35b341561047f57600080fd5b610487610ee3565b60405180826000191660001916815260200191505060405180910390f35b34156104b057600080fd5b6104b8610ee9565b604051808d73ffffffffffffffffffffffffffffffffffffffff1673ffffffffffffffffffffffffffffffffffffffff1681526020018c73ffffffffffffffffffffffffffffffffffffffff1673ffffffffffffffffffffffffffffffffffffffff1681526020018b6fffffffffffffffffffffffffffffffff19166fffffffffffffffffffffffffffffffff191681526020018a8152602001896000191660001916815260200188600019166000191681526020018760001916600019168152602001868152602001858152602001848152602001836000191660001916815260200182600019166000191681526020019c5050505050505050505050505060405180910390f35b60065481565b6105cf610fa2565b600260009054906101000a900473ffffffffffffffffffffffffffffffffffffffff1673ffffffffffffffffffffffffffffffffffffffff163373ffffffffffffffffffffffffffffffffffffffff161415151561062c57600080fd5b610634610e93565b341015151561064257600080fd5b600260009054906101000a900473ffffffffffffffffffffffffffffffffffffffff1673ffffffffffffffffffffffffffffffffffffffff166108fc3073ffffffffffffffffffffffffffffffffffffffff16319081150290604051600060405180830381858888f1935050505015156106bb57600080fd5b600160009054906101000a900473ffffffffffffffffffffffffffffffffffffffff1673ffffffffffffffffffffffffffffffffffffffff16600260009054906101000a900473ffffffffffffffffffffffffffffffffffffffff1673ffffffffffffffffffffffffffffffffffffffff161415610847576000809054906101000a900473ffffffffffffffffffffffffffffffffffffffff1673ffffffffffffffffffffffffffffffffffffffff1663f5521022600260009054906101000a900473ffffffffffffffffffffffffffffffffffffffff166000604051602001526040518263ffffffff167c0100000000000000000000000000000000000000000000000000000000028152600401808273ffffffffffffffffffffffffffffffffffffffff1673ffffffffffffffffffffffffffffffffffffffff168152602001915050602060405180830381600087803b151561081957600080fd5b6102c65a03f1151561082a57600080fd5b50505060405180519050151561083f57600080fd5b426005819055505b33816000019073ffffffffffffffffffffffffffffffffffffffff16908173ffffffffffffffffffffffffffffffffffffffff1681525050600260009054906101000a900473ffffffffffffffffffffffffffffffffffffffff16816020019073ffffffffffffffffffffffffffffffffffffffff16908173ffffffffffffffffffffffffffffffffffffffff16815250506108e1610e93565b81604001818152505042816060018181525050600380548060010182816109089190610ff7565b9160005260206000209060040201600083909190915060008201518160000160006101000a81548173ffffffffffffffffffffffffffffffffffffffff021916908373ffffffffffffffffffffffffffffffffffffffff16021790555060208201518160010160006101000a81548173ffffffffffffffffffffffffffffffffffffffff021916908373ffffffffffffffffffffffffffffffffffffffff160217905550604082015181600201556060820151816003015550505033600260006101000a81548173ffffffffffffffffffffffffffffffffffffffff021916908373ffffffffffffffffffffffffffffffffffffffff160217905550610a14610a0f610e93565b610e27565b610a1e6001610a21565b50565b600260009054906101000a900473ffffffffffffffffffffffffffffffffffffffff1673ffffffffffffffffffffffffffffffffffffffff163373ffffffffffffffffffffffffffffffffffffffff16141515610a7d57600080fd5b80600c60006101000a81548160ff021916908360ff16021790555050565b600160009054906101000a900473ffffffffffffffffffffffffffffffffffffffff1681565b600460009054906101000a90047001000000000000000000000000000000000281565b610aec611029565b610af4611029565b610afc61103d565b610b0461103d565b610b0c611029565b610b14611029565b610b1c61103d565b610b2461103d565b600080336000809054906101000a900473ffffffffffffffffffffffffffffffffffffffff1673ffffffffffffffffffffffffffffffffffffffff1663fe9fbb80826000604051602001526040518263ffffffff167c0100000000000000000000000000000000000000000000000000000000028152600401808273ffffffffffffffffffffffffffffffffffffffff1673ffffffffffffffffffffffffffffffffffffffff168152602001915050602060405180830381600087803b1515610bec57600080fd5b6102c65a03f11515610bfd57600080fd5b505050604051805190501515610c1257600080fd5b600380549050604051805910610c255750595b90808252806020026020018201604052509650600380549050604051805910610c4b5750595b90808252806020026020018201604052509550600380549050604051805910610c715750595b90808252806020026020018201604052509450600380549050604051805910610c975750595b90808252806020026020018201604052509350600092505b600380549050831015610e0857600383815481101515610ccb57fe5b906000526020600020906004020191508160000160009054906101000a900473ffffffffffffffffffffffffffffffffffffffff168784815181101515610d0e57fe5b9060200190602002019073ffffffffffffffffffffffffffffffffffffffff16908173ffffffffffffffffffffffffffffffffffffffff16815250508160010160009054906101000a900473ffffffffffffffffffffffffffffffffffffffff168684815181101515610d7d57fe5b9060200190602002019073ffffffffffffffffffffffffffffffffffffffff16908173ffffffffffffffffffffffffffffffffffffffff168152505081600201548584815181101515610dcc57fe5b906020019060200201818152505081600301548484815181101515610ded57fe5b90602001906020020181815250508280600101935050610caf565b868686869a509a509a509a505050505050505090919293565b60095481565b600260009054906101000a900473ffffffffffffffffffffffffffffffffffffffff1673ffffffffffffffffffffffffffffffffffffffff163373ffffffffffffffffffffffffffffffffffffffff16141515610e8357600080fd5b80600b8190555050565b60055481565b6000600c60009054906101000a900460ff1660ff16600b5402905090565b60085481565b600a5481565b600260009054906101000a900473ffffffffffffffffffffffffffffffffffffffff1681565b60075481565b600080600080600080600080600080600080600260009054906101000a900473ffffffffffffffffffffffffffffffffffffffff16600160009054906101000a900473ffffffffffffffffffffffffffffffffffffffff16600460009054906101000a900470010000000000000000000000000000000002600554600654600754600854600954600a54600b54600d54600e549b509b509b509b509b509b509b509b509b509b509b509b50909192939495969798999a9b565b608060405190810160405280600073ffffffffffffffffffffffffffffffffffffffff168152602001600073ffffffffffffffffffffffffffffffffffffffff16815260200160008152602001600081525090565b815481835581811511611024576004028160040283600052602060002091820191016110239190611051565b5b505050565b602060405190810160405280600081525090565b602060405190810160405280600081525090565b6110cb91905b808211156110c757600080820160006101000a81549073ffffffffffffffffffffffffffffffffffffffff02191690556001820160006101000a81549073ffffffffffffffffffffffffffffffffffffffff02191690556002820160009055600382016000905550600401611057565b5090565b905600a165627a7a723058209dafb557651d177bd3d7718652e4f083b40d0f89574687fb6175bbbe121dbb980029",
  "source": "pragma solidity ^0.4.19;\r\n\r\nimport \"./AuthorityOracle.sol\";\r\n\r\n\r\ncontract Medicine {\r\n\r\n    AuthorityOracle authorityOracle;\r\n\r\n    struct TransactionInfo {\r\n        address buyer;\r\n        address seller;\r\n        uint price;\r\n        uint date;\r\n    }\r\n\r\n    address public producer;\r\n\r\n    address public currentOwner;\r\n\r\n    TransactionInfo[] private transactions;\r\n\r\n    bytes16 public form;\r\n\r\n    uint public sellDateFromProducer;\r\n\r\n    bytes32 public name;\r\n\r\n    bytes32 public batchNumber;\r\n\r\n    bytes32 public id;\r\n\r\n    uint public expirationDate;\r\n\r\n    uint public productionDate;\r\n\r\n    uint private price;\r\n\r\n    uint8 private sellPercent;\r\n\r\n    bytes32 docHash;\r\n\r\n    bytes32 docComment;\r\n\r\n    function Medicine(address _addressToCheck, address _authorityOracle, bytes16 _form,\r\n        bytes32 _name, bytes32 _batchNumber, bytes32 _id, uint _expirationDate, uint _price,\r\n        bytes32 _docHash, bytes32 _docComment)\r\n    public {\r\n        authorityOracle = AuthorityOracle(_authorityOracle);\r\n        require(authorityOracle.isProducer(_addressToCheck));\r\n        currentOwner = msg.sender;\r\n        producer = msg.sender;\r\n        productionDate = now;\r\n        form = _form;\r\n        name = _name;\r\n        batchNumber = _batchNumber;\r\n        id = _id;\r\n        expirationDate = _expirationDate;\r\n        price = _price;\r\n        sellPercent = 1;\r\n        docHash = _docHash;\r\n        docComment = _docComment;\r\n    }\r\n\r\n    function getMedInfo() public view\r\n    returns(address _currentOwner, address _producer, bytes16 _form, uint _sellDate, bytes32 _name,\r\n        bytes32 _batchNumber, bytes32 _id, uint _expirationDate, uint _productionDate, uint _price,\r\n        bytes32 _docHash, bytes32 _docComment) {\r\n        return (currentOwner, producer, form, sellDateFromProducer, name, batchNumber,\r\n            id, expirationDate, productionDate, price, docHash, docComment);\r\n    }\r\n\r\n    modifier isOwner() {\r\n        require(msg.sender == currentOwner);\r\n        _;\r\n    }\r\n\r\n    modifier canBuy() {\r\n        require(msg.sender != currentOwner);\r\n        require(msg.value >= getPrice());\r\n        _;\r\n    }\r\n\r\n    modifier canDestroy() {\r\n        require(msg.sender == producer);\r\n        _;\r\n    }\r\n\r\n    modifier isAuthorized(address _address) {\r\n        require(authorityOracle.isAuthorized(_address));\r\n        _;\r\n    }\r\n\r\n    function getPrice() view public returns(uint) {\r\n        return price * sellPercent;\r\n    }\r\n\r\n    function setPrice(uint _value) isOwner public {\r\n        price = _value;\r\n    }\r\n\r\n    function setSellPercent(uint8 _value) isOwner public {\r\n        sellPercent = _value;\r\n    }\r\n\r\n    function buyMedicine() canBuy() public payable  {\r\n        currentOwner.transfer(this.balance);\r\n        if (currentOwner == producer) {\r\n            require(authorityOracle.isProducer(currentOwner));\r\n            sellDateFromProducer = now;\r\n        }\r\n        // add to history of transactions\r\n        TransactionInfo memory transaction;\r\n        transaction.buyer = msg.sender;\r\n        transaction.seller = currentOwner;\r\n        transaction.price = getPrice();\r\n        transaction.date = now;\r\n        transactions.push(transaction);\r\n        currentOwner = msg.sender;\r\n        setPrice(getPrice());\r\n        // new owner should not know the sell percent of previous owner\r\n        setSellPercent(1);\r\n    }\r\n\r\n    function getTransactions()\r\n    view public\r\n    isAuthorized(msg.sender)\r\n    returns(address[] buyers, address[] sellers, uint[] prices, uint[] dates) {\r\n\r\n        address[] memory _buyers = new address[](transactions.length);\r\n        address[] memory _sellers = new address[](transactions.length);\r\n        uint[] memory _prices = new uint[](transactions.length);\r\n        uint[] memory _dates = new uint[](transactions.length);\r\n\r\n        for (uint i = 0; i < transactions.length; i++) {\r\n            TransactionInfo storage transactionInfo = transactions[i];\r\n            _buyers[i] = transactionInfo.buyer;\r\n            _sellers[i] = transactionInfo.seller;\r\n            _prices[i] = transactionInfo.price;\r\n            _dates[i] = transactionInfo.date;\r\n        }\r\n\r\n        return (_buyers, _sellers, _prices, _dates);\r\n    }\r\n\r\n    function destroy() private {\r\n        selfdestruct(currentOwner);\r\n    }\r\n}\r\n",
  "sourcePath": "C:\\Projects\\solidity\\MedTrace\\contracts\\Medicine.sol",
  "compiler": {
    "name": "solc",
    "version": "0.4.19+commit.c4cbbb05.Emscripten.clang"
  },
  "schemaVersion": "2.0.0",
  "updatedAt": "2018-03-10T21:13:31.773Z"
}