{
  "contractName": "MedTrace",
  "abi": [
    {
      "constant": true,
      "inputs": [
        {
          "name": "",
          "type": "bytes32"
        },
        {
          "name": "",
          "type": "bytes32"
        }
      ],
      "name": "meds",
      "outputs": [
        {
          "name": "",
          "type": "address"
        }
      ],
      "payable": false,
      "stateMutability": "view",
      "type": "function"
    },
    {
      "inputs": [
        {
          "name": "_authorityOracle",
          "type": "address"
        }
      ],
      "payable": false,
      "stateMutability": "nonpayable",
      "type": "constructor"
    },
    {
      "constant": false,
      "inputs": [
        {
          "name": "_form",
          "type": "bytes16"
        },
        {
          "name": "_name",
          "type": "bytes32"
        },
        {
          "name": "_batchNumber",
          "type": "bytes32"
        },
        {
          "name": "_id",
          "type": "bytes32"
        },
        {
          "name": "_expirationDate",
          "type": "uint256"
        },
        {
          "name": "_price",
          "type": "uint256"
        },
        {
          "name": "_docHash",
          "type": "bytes32"
        },
        {
          "name": "_docComment",
          "type": "bytes32"
        }
      ],
      "name": "produceMed",
      "outputs": [],
      "payable": false,
      "stateMutability": "nonpayable",
      "type": "function"
    },
    {
      "constant": true,
      "inputs": [
        {
          "name": "_batchNumber",
          "type": "bytes32"
        },
        {
          "name": "_id",
          "type": "bytes32"
        }
      ],
      "name": "getMedInfo",
      "outputs": [],
      "payable": false,
      "stateMutability": "view",
      "type": "function"
    },
    {
      "constant": false,
      "inputs": [],
      "name": "getTest",
      "outputs": [
        {
          "name": "",
          "type": "string"
        }
      ],
      "payable": false,
      "stateMutability": "nonpayable",
      "type": "function"
    }
  ],
  "bytecode": "0x6060604052341561000f57600080fd5b604051602080611b2483398101604052808051906020019091905050806000806101000a81548173ffffffffffffffffffffffffffffffffffffffff021916908373ffffffffffffffffffffffffffffffffffffffff16021790555050611aa98061007b6000396000f300606060405260043610610062576000357c0100000000000000000000000000000000000000000000000000000000900463ffffffff1680632ea290601461006757806361fbb23c1461009b578063a0cc11a114610124578063a8cd0a8014610198575b600080fd5b341561007257600080fd5b61009960048080356000191690602001909190803560001916906020019091905050610226565b005b34156100a657600080fd5b61012260048080356fffffffffffffffffffffffffffffffff19169060200190919080356000191690602001909190803560001916906020019091908035600019169060200190919080359060200190919080359060200190919080356000191690602001909190803560001916906020019091905050610355565b005b341561012f57600080fd5b610156600480803560001916906020019091908035600019169060200190919050506105f5565b604051808273ffffffffffffffffffffffffffffffffffffffff1673ffffffffffffffffffffffffffffffffffffffff16815260200191505060405180910390f35b34156101a357600080fd5b6101ab610637565b6040518080602001828103825283818151815260200191508051906020019080838360005b838110156101eb5780820151818401526020810190506101d0565b50505050905090810190601f1680156102185780820380516001836020036101000a031916815260200191505b509250505060405180910390f35b6002600083600019166000191681526020019081526020016000206000826000191660001916815260200190815260200160002060009054906101000a900473ffffffffffffffffffffffffffffffffffffffff1673ffffffffffffffffffffffffffffffffffffffff1663e5ca311c600060405161018001526040518163ffffffff167c010000000000000000000000000000000000000000000000000000000002815260040161018060405180830381600087803b15156102e857600080fd5b6102c65a03f115156102f957600080fd5b505050604051805190602001805190602001805190602001805190602001805190602001805190602001805190602001805190602001805190602001805190602001805190602001805190505050505050505050505050505050565b336000809054906101000a900473ffffffffffffffffffffffffffffffffffffffff1673ffffffffffffffffffffffffffffffffffffffff1663f5521022826000604051602001526040518263ffffffff167c0100000000000000000000000000000000000000000000000000000000028152600401808273ffffffffffffffffffffffffffffffffffffffff1673ffffffffffffffffffffffffffffffffffffffff168152602001915050602060405180830381600087803b151561041a57600080fd5b6102c65a03f1151561042b57600080fd5b50505060405180519050151561044057600080fd5b336000809054906101000a900473ffffffffffffffffffffffffffffffffffffffff168a8a8a8a8a8a8a8a61047361067a565b808b73ffffffffffffffffffffffffffffffffffffffff1673ffffffffffffffffffffffffffffffffffffffff1681526020018a73ffffffffffffffffffffffffffffffffffffffff1673ffffffffffffffffffffffffffffffffffffffff168152602001896fffffffffffffffffffffffffffffffff19166fffffffffffffffffffffffffffffffff19168152602001886000191660001916815260200187600019166000191681526020018660001916600019168152602001858152602001848152602001836000191660001916815260200182600019166000191681526020019a5050505050505050505050604051809103906000f080151561057857600080fd5b6002600089600019166000191681526020019081526020016000206000886000191660001916815260200190815260200160002060006101000a81548173ffffffffffffffffffffffffffffffffffffffff021916908373ffffffffffffffffffffffffffffffffffffffff160217905550505050505050505050565b60026020528160005260406000206020528060005260406000206000915091509054906101000a900473ffffffffffffffffffffffffffffffffffffffff1681565b61063f61068a565b6040805190810160405280600e81526020017f7468697320697320612074657374000000000000000000000000000000000000815250905090565b6040516113df8061069f83390190565b60206040519081016040528060008152509056006060604052341561000f57600080fd5b604051610140806113df83398101604052808051906020019091908051906020019091908051906020019091908051906020019091908051906020019091908051906020019091908051906020019091908051906020019091908051906020019091908051906020019091905050886000806101000a81548173ffffffffffffffffffffffffffffffffffffffff021916908373ffffffffffffffffffffffffffffffffffffffff1602179055506000809054906101000a900473ffffffffffffffffffffffffffffffffffffffff1673ffffffffffffffffffffffffffffffffffffffff1663f55210228b6000604051602001526040518263ffffffff167c0100000000000000000000000000000000000000000000000000000000028152600401808273ffffffffffffffffffffffffffffffffffffffff1673ffffffffffffffffffffffffffffffffffffffff168152602001915050602060405180830381600087803b151561018157600080fd5b6102c65a03f1151561019257600080fd5b5050506040518051905015156101a757600080fd5b33600260006101000a81548173ffffffffffffffffffffffffffffffffffffffff021916908373ffffffffffffffffffffffffffffffffffffffff16021790555033600160006101000a81548173ffffffffffffffffffffffffffffffffffffffff021916908373ffffffffffffffffffffffffffffffffffffffff16021790555042600a8190555087600460006101000a8154816fffffffffffffffffffffffffffffffff0219169083700100000000000000000000000000000000900402179055508660068160001916905550856007816000191690555084600881600019169055508360098190555082600b819055506001600c60006101000a81548160ff021916908360ff16021790555081600d816000191690555080600e8160001916905550505050505050505050506110fa806102e56000396000f3006060604052600436106100db576000357c0100000000000000000000000000000000000000000000000000000000900463ffffffff16806306fdde03146100e0578063094ebde6146101115780632f89859b1461011b57806337612672146101415780635ee574131461019657806383920e90146101e55780638f6204871461032757806391b7f5ed1461035057806394cc2adc1461037357806398d5fdca1461039c578063af640d0f146103c5578063af648929146103f6578063b387ef921461041f578063ba87306514610474578063e5ca311c146104a5575b600080fd5b34156100eb57600080fd5b6100f36105c1565b60405180826000191660001916815260200191505060405180910390f35b6101196105c7565b005b341561012657600080fd5b61013f600480803560ff16906020019091905050610a21565b005b341561014c57600080fd5b610154610a9b565b604051808273ffffffffffffffffffffffffffffffffffffffff1673ffffffffffffffffffffffffffffffffffffffff16815260200191505060405180910390f35b34156101a157600080fd5b6101a9610ac1565b60405180826fffffffffffffffffffffffffffffffff19166fffffffffffffffffffffffffffffffff1916815260200191505060405180910390f35b34156101f057600080fd5b6101f8610ae4565b6040518080602001806020018060200180602001858103855289818151815260200191508051906020019060200280838360005b8381101561024757808201518184015260208101905061022c565b50505050905001858103845288818151815260200191508051906020019060200280838360005b8381101561028957808201518184015260208101905061026e565b50505050905001858103835287818151815260200191508051906020019060200280838360005b838110156102cb5780820151818401526020810190506102b0565b50505050905001858103825286818151815260200191508051906020019060200280838360005b8381101561030d5780820151818401526020810190506102f2565b505050509050019850505050505050505060405180910390f35b341561033257600080fd5b61033a610e21565b6040518082815260200191505060405180910390f35b341561035b57600080fd5b6103716004808035906020019091905050610e27565b005b341561037e57600080fd5b610386610e8d565b6040518082815260200191505060405180910390f35b34156103a757600080fd5b6103af610e93565b6040518082815260200191505060405180910390f35b34156103d057600080fd5b6103d8610eb1565b60405180826000191660001916815260200191505060405180910390f35b341561040157600080fd5b610409610eb7565b6040518082815260200191505060405180910390f35b341561042a57600080fd5b610432610ebd565b604051808273ffffffffffffffffffffffffffffffffffffffff1673ffffffffffffffffffffffffffffffffffffffff16815260200191505060405180910390f35b341561047f57600080fd5b610487610ee3565b60405180826000191660001916815260200191505060405180910390f35b34156104b057600080fd5b6104b8610ee9565b604051808d73ffffffffffffffffffffffffffffffffffffffff1673ffffffffffffffffffffffffffffffffffffffff1681526020018c73ffffffffffffffffffffffffffffffffffffffff1673ffffffffffffffffffffffffffffffffffffffff1681526020018b6fffffffffffffffffffffffffffffffff19166fffffffffffffffffffffffffffffffff191681526020018a8152602001896000191660001916815260200188600019166000191681526020018760001916600019168152602001868152602001858152602001848152602001836000191660001916815260200182600019166000191681526020019c5050505050505050505050505060405180910390f35b60065481565b6105cf610fa2565b600260009054906101000a900473ffffffffffffffffffffffffffffffffffffffff1673ffffffffffffffffffffffffffffffffffffffff163373ffffffffffffffffffffffffffffffffffffffff161415151561062c57600080fd5b610634610e93565b341015151561064257600080fd5b600260009054906101000a900473ffffffffffffffffffffffffffffffffffffffff1673ffffffffffffffffffffffffffffffffffffffff166108fc3073ffffffffffffffffffffffffffffffffffffffff16319081150290604051600060405180830381858888f1935050505015156106bb57600080fd5b600160009054906101000a900473ffffffffffffffffffffffffffffffffffffffff1673ffffffffffffffffffffffffffffffffffffffff16600260009054906101000a900473ffffffffffffffffffffffffffffffffffffffff1673ffffffffffffffffffffffffffffffffffffffff161415610847576000809054906101000a900473ffffffffffffffffffffffffffffffffffffffff1673ffffffffffffffffffffffffffffffffffffffff1663f5521022600260009054906101000a900473ffffffffffffffffffffffffffffffffffffffff166000604051602001526040518263ffffffff167c0100000000000000000000000000000000000000000000000000000000028152600401808273ffffffffffffffffffffffffffffffffffffffff1673ffffffffffffffffffffffffffffffffffffffff168152602001915050602060405180830381600087803b151561081957600080fd5b6102c65a03f1151561082a57600080fd5b50505060405180519050151561083f57600080fd5b426005819055505b33816000019073ffffffffffffffffffffffffffffffffffffffff16908173ffffffffffffffffffffffffffffffffffffffff1681525050600260009054906101000a900473ffffffffffffffffffffffffffffffffffffffff16816020019073ffffffffffffffffffffffffffffffffffffffff16908173ffffffffffffffffffffffffffffffffffffffff16815250506108e1610e93565b81604001818152505042816060018181525050600380548060010182816109089190610ff7565b9160005260206000209060040201600083909190915060008201518160000160006101000a81548173ffffffffffffffffffffffffffffffffffffffff021916908373ffffffffffffffffffffffffffffffffffffffff16021790555060208201518160010160006101000a81548173ffffffffffffffffffffffffffffffffffffffff021916908373ffffffffffffffffffffffffffffffffffffffff160217905550604082015181600201556060820151816003015550505033600260006101000a81548173ffffffffffffffffffffffffffffffffffffffff021916908373ffffffffffffffffffffffffffffffffffffffff160217905550610a14610a0f610e93565b610e27565b610a1e6001610a21565b50565b600260009054906101000a900473ffffffffffffffffffffffffffffffffffffffff1673ffffffffffffffffffffffffffffffffffffffff163373ffffffffffffffffffffffffffffffffffffffff16141515610a7d57600080fd5b80600c60006101000a81548160ff021916908360ff16021790555050565b600160009054906101000a900473ffffffffffffffffffffffffffffffffffffffff1681565b600460009054906101000a90047001000000000000000000000000000000000281565b610aec611029565b610af4611029565b610afc61103d565b610b0461103d565b610b0c611029565b610b14611029565b610b1c61103d565b610b2461103d565b600080336000809054906101000a900473ffffffffffffffffffffffffffffffffffffffff1673ffffffffffffffffffffffffffffffffffffffff1663fe9fbb80826000604051602001526040518263ffffffff167c0100000000000000000000000000000000000000000000000000000000028152600401808273ffffffffffffffffffffffffffffffffffffffff1673ffffffffffffffffffffffffffffffffffffffff168152602001915050602060405180830381600087803b1515610bec57600080fd5b6102c65a03f11515610bfd57600080fd5b505050604051805190501515610c1257600080fd5b600380549050604051805910610c255750595b90808252806020026020018201604052509650600380549050604051805910610c4b5750595b90808252806020026020018201604052509550600380549050604051805910610c715750595b90808252806020026020018201604052509450600380549050604051805910610c975750595b90808252806020026020018201604052509350600092505b600380549050831015610e0857600383815481101515610ccb57fe5b906000526020600020906004020191508160000160009054906101000a900473ffffffffffffffffffffffffffffffffffffffff168784815181101515610d0e57fe5b9060200190602002019073ffffffffffffffffffffffffffffffffffffffff16908173ffffffffffffffffffffffffffffffffffffffff16815250508160010160009054906101000a900473ffffffffffffffffffffffffffffffffffffffff168684815181101515610d7d57fe5b9060200190602002019073ffffffffffffffffffffffffffffffffffffffff16908173ffffffffffffffffffffffffffffffffffffffff168152505081600201548584815181101515610dcc57fe5b906020019060200201818152505081600301548484815181101515610ded57fe5b90602001906020020181815250508280600101935050610caf565b868686869a509a509a509a505050505050505090919293565b60095481565b600260009054906101000a900473ffffffffffffffffffffffffffffffffffffffff1673ffffffffffffffffffffffffffffffffffffffff163373ffffffffffffffffffffffffffffffffffffffff16141515610e8357600080fd5b80600b8190555050565b60055481565b6000600c60009054906101000a900460ff1660ff16600b5402905090565b60085481565b600a5481565b600260009054906101000a900473ffffffffffffffffffffffffffffffffffffffff1681565b60075481565b600080600080600080600080600080600080600260009054906101000a900473ffffffffffffffffffffffffffffffffffffffff16600160009054906101000a900473ffffffffffffffffffffffffffffffffffffffff16600460009054906101000a900470010000000000000000000000000000000002600554600654600754600854600954600a54600b54600d54600e549b509b509b509b509b509b509b509b509b509b509b509b50909192939495969798999a9b565b608060405190810160405280600073ffffffffffffffffffffffffffffffffffffffff168152602001600073ffffffffffffffffffffffffffffffffffffffff16815260200160008152602001600081525090565b815481835581811511611024576004028160040283600052602060002091820191016110239190611051565b5b505050565b602060405190810160405280600081525090565b602060405190810160405280600081525090565b6110cb91905b808211156110c757600080820160006101000a81549073ffffffffffffffffffffffffffffffffffffffff02191690556001820160006101000a81549073ffffffffffffffffffffffffffffffffffffffff02191690556002820160009055600382016000905550600401611057565b5090565b905600a165627a7a723058209dafb557651d177bd3d7718652e4f083b40d0f89574687fb6175bbbe121dbb980029a165627a7a7230582009ca270a155483bb9a98e2ed432b5eb36f281afea45fb1dfb8d6e4c36272377c0029",
  "source": "pragma solidity ^0.4.19;\r\n\r\nimport \"./Medicine.sol\";\r\nimport \"./AuthorityOracle.sol\";\r\n\r\n\r\ncontract MedTrace {\r\n\r\n    AuthorityOracle authorityOracle;\r\n\r\n    mapping(bytes32=>Medicine) medicine;\r\n    mapping(bytes32=>mapping(bytes32=>Medicine)) public meds;\r\n\r\n    function MedTrace(address _authorityOracle) public {\r\n        authorityOracle = AuthorityOracle(_authorityOracle);\r\n    }\r\n\r\n    modifier isProducer(address _address) {\r\n        require(authorityOracle.isProducer(_address));\r\n        _;\r\n    }\r\n\r\n    function produceMed(bytes16 _form, bytes32 _name, bytes32 _batchNumber, bytes32 _id,\r\n        uint _expirationDate, uint _price, bytes32 _docHash, bytes32 _docComment)\r\n    isProducer(msg.sender)\r\n    public {\r\n        meds[_batchNumber][_id] = new Medicine(msg.sender, authorityOracle, _form, _name, _batchNumber, _id, _expirationDate, _price, _docHash, _docComment);\r\n    }\r\n\r\n    function getMedInfo(bytes32 _batchNumber, bytes32 _id) view public {\r\n        meds[_batchNumber][_id].getMedInfo();\r\n    }\r\n\r\n    function getTest() public returns(string) {\r\n        return \"this is a test\";\r\n    }\r\n}\r\n",
  "sourcePath": "C:\\Projects\\solidity\\MedTrace\\contracts\\MedTrace.sol",
  "compiler": {
    "name": "solc",
    "version": "0.4.19+commit.c4cbbb05.Emscripten.clang"
  },
  "schemaVersion": "2.0.0",
  "updatedAt": "2018-03-10T21:13:31.771Z"
}