{
  "contractName": "MedTrace",
  "abi": [
    {
      "constant": true,
      "inputs": [
        {
          "name": "",
          "type": "uint256"
        },
        {
          "name": "",
          "type": "uint256"
        }
      ],
      "name": "meds",
      "outputs": [
        {
          "name": "",
          "type": "address"
        }
      ],
      "payable": false,
      "stateMutability": "view",
      "type": "function"
    },
    {
      "inputs": [
        {
          "name": "_authorityOracle",
          "type": "address"
        }
      ],
      "payable": false,
      "stateMutability": "nonpayable",
      "type": "constructor"
    },
    {
      "constant": false,
      "inputs": [
        {
          "name": "_form",
          "type": "bytes16"
        },
        {
          "name": "_name",
          "type": "bytes16"
        },
        {
          "name": "_batchNumber",
          "type": "uint256"
        },
        {
          "name": "_id",
          "type": "uint256"
        },
        {
          "name": "_expirationDate",
          "type": "uint256"
        },
        {
          "name": "_price",
          "type": "uint8"
        },
        {
          "name": "_docHash",
          "type": "string"
        },
        {
          "name": "_docComment",
          "type": "bytes32"
        }
      ],
      "name": "produceMed",
      "outputs": [],
      "payable": false,
      "stateMutability": "nonpayable",
      "type": "function"
    },
    {
      "constant": true,
      "inputs": [
        {
          "name": "_batchNumber",
          "type": "uint256"
        },
        {
          "name": "_id",
          "type": "uint256"
        }
      ],
      "name": "getMedAddress",
      "outputs": [
        {
          "name": "_address",
          "type": "address"
        }
      ],
      "payable": false,
      "stateMutability": "view",
      "type": "function"
    }
  ],
  "bytecode": "0x6060604052341561000f57600080fd5b604051602080611c7f83398101604052808051906020019091905050806000806101000a81548173ffffffffffffffffffffffffffffffffffffffff021916908373ffffffffffffffffffffffffffffffffffffffff16021790555050611c048061007b6000396000f300606060405260043610610057576000357c0100000000000000000000000000000000000000000000000000000000900463ffffffff1680636c5cbc7f1461005c5780639d154ed714610125578063fe315d6b14610191575b600080fd5b341561006757600080fd5b61012360048080356fffffffffffffffffffffffffffffffff19169060200190919080356fffffffffffffffffffffffffffffffff191690602001909190803590602001909190803590602001909190803590602001909190803560ff1690602001909190803590602001908201803590602001908080601f01602080910402602001604051908101604052809392919081815260200183838082843782019150505050505091908035600019169060200190919050506101fd565b005b341561013057600080fd5b61014f60048080359060200190919080359060200190919050506104fb565b604051808273ffffffffffffffffffffffffffffffffffffffff1673ffffffffffffffffffffffffffffffffffffffff16815260200191505060405180910390f35b341561019c57600080fd5b6101bb600480803590602001909190803590602001909190505061054a565b604051808273ffffffffffffffffffffffffffffffffffffffff1673ffffffffffffffffffffffffffffffffffffffff16815260200191505060405180910390f35b336000809054906101000a900473ffffffffffffffffffffffffffffffffffffffff1673ffffffffffffffffffffffffffffffffffffffff1663f5521022826000604051602001526040518263ffffffff167c0100000000000000000000000000000000000000000000000000000000028152600401808273ffffffffffffffffffffffffffffffffffffffff1673ffffffffffffffffffffffffffffffffffffffff168152602001915050602060405180830381600087803b15156102c257600080fd5b6102c65a03f115156102d357600080fd5b5050506040518051905015156102e857600080fd5b336000809054906101000a900473ffffffffffffffffffffffffffffffffffffffff168a8a8a8a8a8a8a8a61031b61058c565b808b73ffffffffffffffffffffffffffffffffffffffff1673ffffffffffffffffffffffffffffffffffffffff1681526020018a73ffffffffffffffffffffffffffffffffffffffff1673ffffffffffffffffffffffffffffffffffffffff168152602001896fffffffffffffffffffffffffffffffff19166fffffffffffffffffffffffffffffffff19168152602001886fffffffffffffffffffffffffffffffff19166fffffffffffffffffffffffffffffffff191681526020018781526020018681526020018581526020018460ff168152602001806020018360001916600019168152602001828103825284818151815260200191508051906020019080838360005b8381101561043d578082015181840152602081019050610422565b50505050905090810190601f16801561046a5780820380516001836020036101000a031916815260200191505b509b505050505050505050505050604051809103906000f080151561048e57600080fd5b60026000898152602001908152602001600020600088815260200190815260200160002060006101000a81548173ffffffffffffffffffffffffffffffffffffffff021916908373ffffffffffffffffffffffffffffffffffffffff160217905550505050505050505050565b600060026000848152602001908152602001600020600083815260200190815260200160002060009054906101000a900473ffffffffffffffffffffffffffffffffffffffff16905092915050565b60026020528160005260406000206020528060005260406000206000915091509054906101000a900473ffffffffffffffffffffffffffffffffffffffff1681565b60405161163c8061059d833901905600606060405234156200001057600080fd5b6040516200163c3803806200163c83398101604052808051906020019091908051906020019091908051906020019091908051906020019091908051906020019091908051906020019091908051906020019091908051906020019091908051820191906020018051906020019091905050886000806101000a81548173ffffffffffffffffffffffffffffffffffffffff021916908373ffffffffffffffffffffffffffffffffffffffff1602179055506000809054906101000a900473ffffffffffffffffffffffffffffffffffffffff1673ffffffffffffffffffffffffffffffffffffffff1663f55210228b6000604051602001526040518263ffffffff167c0100000000000000000000000000000000000000000000000000000000028152600401808273ffffffffffffffffffffffffffffffffffffffff1673ffffffffffffffffffffffffffffffffffffffff168152602001915050602060405180830381600087803b15156200018757600080fd5b6102c65a03f115156200019957600080fd5b505050604051805190501515620001af57600080fd5b89600260006101000a81548173ffffffffffffffffffffffffffffffffffffffff021916908373ffffffffffffffffffffffffffffffffffffffff16021790555089600160006101000a81548173ffffffffffffffffffffffffffffffffffffffff021916908373ffffffffffffffffffffffffffffffffffffffff16021790555042600a8190555087600460006101000a8154816fffffffffffffffffffffffffffffffff02191690837001000000000000000000000000000000009004021790555086600660006101000a8154816fffffffffffffffffffffffffffffffff02191690837001000000000000000000000000000000009004021790555085600781905550846008819055508360098190555082600b819055506001600c60006101000a81548160ff021916908360ff16021790555081600d9080519060200190620002fe9291906200031a565b5080600e816000191690555050505050505050505050620003c9565b828054600181600116156101000203166002900490600052602060002090601f016020900481019282601f106200035d57805160ff19168380011785556200038e565b828001600101855582156200038e579182015b828111156200038d57825182559160200191906001019062000370565b5b5090506200039d9190620003a1565b5090565b620003c691905b80821115620003c2576000816000905550600101620003a8565b5090565b90565b61126380620003d96000396000f3006060604052600436106100db576000357c0100000000000000000000000000000000000000000000000000000000900463ffffffff16806306fdde03146100e0578063094ebde61461012f5780632f89859b14610139578063376126721461015f5780635ee57413146101b457806383920e90146102035780638f6204871461034557806391b7f5ed1461036e57806394cc2adc1461039157806398d5fdca146103ba578063af640d0f146103e3578063af6489291461040c578063b387ef9214610435578063ba8730651461048a578063e5ca311c146104b3575b600080fd5b34156100eb57600080fd5b6100f361063a565b60405180826fffffffffffffffffffffffffffffffff19166fffffffffffffffffffffffffffffffff1916815260200191505060405180910390f35b61013761065d565b005b341561014457600080fd5b61015d600480803560ff16906020019091905050610ab7565b005b341561016a57600080fd5b610172610b31565b604051808273ffffffffffffffffffffffffffffffffffffffff1673ffffffffffffffffffffffffffffffffffffffff16815260200191505060405180910390f35b34156101bf57600080fd5b6101c7610b57565b60405180826fffffffffffffffffffffffffffffffff19166fffffffffffffffffffffffffffffffff1916815260200191505060405180910390f35b341561020e57600080fd5b610216610b7a565b6040518080602001806020018060200180602001858103855289818151815260200191508051906020019060200280838360005b8381101561026557808201518184015260208101905061024a565b50505050905001858103845288818151815260200191508051906020019060200280838360005b838110156102a757808201518184015260208101905061028c565b50505050905001858103835287818151815260200191508051906020019060200280838360005b838110156102e95780820151818401526020810190506102ce565b50505050905001858103825286818151815260200191508051906020019060200280838360005b8381101561032b578082015181840152602081019050610310565b505050509050019850505050505050505060405180910390f35b341561035057600080fd5b610358610eb7565b6040518082815260200191505060405180910390f35b341561037957600080fd5b61038f6004808035906020019091905050610ebd565b005b341561039c57600080fd5b6103a4610f23565b6040518082815260200191505060405180910390f35b34156103c557600080fd5b6103cd610f29565b6040518082815260200191505060405180910390f35b34156103ee57600080fd5b6103f6610f47565b6040518082815260200191505060405180910390f35b341561041757600080fd5b61041f610f4d565b6040518082815260200191505060405180910390f35b341561044057600080fd5b610448610f53565b604051808273ffffffffffffffffffffffffffffffffffffffff1673ffffffffffffffffffffffffffffffffffffffff16815260200191505060405180910390f35b341561049557600080fd5b61049d610f79565b6040518082815260200191505060405180910390f35b34156104be57600080fd5b6104c6610f7f565b604051808d73ffffffffffffffffffffffffffffffffffffffff1673ffffffffffffffffffffffffffffffffffffffff1681526020018c73ffffffffffffffffffffffffffffffffffffffff1673ffffffffffffffffffffffffffffffffffffffff1681526020018b6fffffffffffffffffffffffffffffffff19166fffffffffffffffffffffffffffffffff191681526020018a8152602001896fffffffffffffffffffffffffffffffff19166fffffffffffffffffffffffffffffffff19168152602001888152602001878152602001868152602001858152602001848152602001806020018360001916600019168152602001828103825284818151815260200191508051906020019080838360005b838110156105f45780820151818401526020810190506105d9565b50505050905090810190601f1680156106215780820380516001836020036101000a031916815260200191505b509d505050505050505050505050505060405180910390f35b600660009054906101000a90047001000000000000000000000000000000000281565b6106656110f7565b600260009054906101000a900473ffffffffffffffffffffffffffffffffffffffff1673ffffffffffffffffffffffffffffffffffffffff163373ffffffffffffffffffffffffffffffffffffffff16141515156106c257600080fd5b6106ca610f29565b34101515156106d857600080fd5b600260009054906101000a900473ffffffffffffffffffffffffffffffffffffffff1673ffffffffffffffffffffffffffffffffffffffff166108fc3073ffffffffffffffffffffffffffffffffffffffff16319081150290604051600060405180830381858888f19350505050151561075157600080fd5b600160009054906101000a900473ffffffffffffffffffffffffffffffffffffffff1673ffffffffffffffffffffffffffffffffffffffff16600260009054906101000a900473ffffffffffffffffffffffffffffffffffffffff1673ffffffffffffffffffffffffffffffffffffffff1614156108dd576000809054906101000a900473ffffffffffffffffffffffffffffffffffffffff1673ffffffffffffffffffffffffffffffffffffffff1663f5521022600260009054906101000a900473ffffffffffffffffffffffffffffffffffffffff166000604051602001526040518263ffffffff167c0100000000000000000000000000000000000000000000000000000000028152600401808273ffffffffffffffffffffffffffffffffffffffff1673ffffffffffffffffffffffffffffffffffffffff168152602001915050602060405180830381600087803b15156108af57600080fd5b6102c65a03f115156108c057600080fd5b5050506040518051905015156108d557600080fd5b426005819055505b33816000019073ffffffffffffffffffffffffffffffffffffffff16908173ffffffffffffffffffffffffffffffffffffffff1681525050600260009054906101000a900473ffffffffffffffffffffffffffffffffffffffff16816020019073ffffffffffffffffffffffffffffffffffffffff16908173ffffffffffffffffffffffffffffffffffffffff1681525050610977610f29565b816040018181525050428160600181815250506003805480600101828161099e919061114c565b9160005260206000209060040201600083909190915060008201518160000160006101000a81548173ffffffffffffffffffffffffffffffffffffffff021916908373ffffffffffffffffffffffffffffffffffffffff16021790555060208201518160010160006101000a81548173ffffffffffffffffffffffffffffffffffffffff021916908373ffffffffffffffffffffffffffffffffffffffff160217905550604082015181600201556060820151816003015550505033600260006101000a81548173ffffffffffffffffffffffffffffffffffffffff021916908373ffffffffffffffffffffffffffffffffffffffff160217905550610aaa610aa5610f29565b610ebd565b610ab46001610ab7565b50565b600260009054906101000a900473ffffffffffffffffffffffffffffffffffffffff1673ffffffffffffffffffffffffffffffffffffffff163373ffffffffffffffffffffffffffffffffffffffff16141515610b1357600080fd5b80600c60006101000a81548160ff021916908360ff16021790555050565b600160009054906101000a900473ffffffffffffffffffffffffffffffffffffffff1681565b600460009054906101000a90047001000000000000000000000000000000000281565b610b8261117e565b610b8a61117e565b610b92611192565b610b9a611192565b610ba261117e565b610baa61117e565b610bb2611192565b610bba611192565b600080336000809054906101000a900473ffffffffffffffffffffffffffffffffffffffff1673ffffffffffffffffffffffffffffffffffffffff1663fe9fbb80826000604051602001526040518263ffffffff167c0100000000000000000000000000000000000000000000000000000000028152600401808273ffffffffffffffffffffffffffffffffffffffff1673ffffffffffffffffffffffffffffffffffffffff168152602001915050602060405180830381600087803b1515610c8257600080fd5b6102c65a03f11515610c9357600080fd5b505050604051805190501515610ca857600080fd5b600380549050604051805910610cbb5750595b90808252806020026020018201604052509650600380549050604051805910610ce15750595b90808252806020026020018201604052509550600380549050604051805910610d075750595b90808252806020026020018201604052509450600380549050604051805910610d2d5750595b90808252806020026020018201604052509350600092505b600380549050831015610e9e57600383815481101515610d6157fe5b906000526020600020906004020191508160000160009054906101000a900473ffffffffffffffffffffffffffffffffffffffff168784815181101515610da457fe5b9060200190602002019073ffffffffffffffffffffffffffffffffffffffff16908173ffffffffffffffffffffffffffffffffffffffff16815250508160010160009054906101000a900473ffffffffffffffffffffffffffffffffffffffff168684815181101515610e1357fe5b9060200190602002019073ffffffffffffffffffffffffffffffffffffffff16908173ffffffffffffffffffffffffffffffffffffffff168152505081600201548584815181101515610e6257fe5b906020019060200201818152505081600301548484815181101515610e8357fe5b90602001906020020181815250508280600101935050610d45565b868686869a509a509a509a505050505050505090919293565b60095481565b600260009054906101000a900473ffffffffffffffffffffffffffffffffffffffff1673ffffffffffffffffffffffffffffffffffffffff163373ffffffffffffffffffffffffffffffffffffffff16141515610f1957600080fd5b80600b8190555050565b60055481565b6000600c60009054906101000a900460ff1660ff16600b5402905090565b60085481565b600a5481565b600260009054906101000a900473ffffffffffffffffffffffffffffffffffffffff1681565b60075481565b600080600080600080600080600080610f966111a6565b6000600260009054906101000a900473ffffffffffffffffffffffffffffffffffffffff16600160009054906101000a900473ffffffffffffffffffffffffffffffffffffffff16600460009054906101000a900470010000000000000000000000000000000002600554600660009054906101000a900470010000000000000000000000000000000002600754600854600954600a54600b54600d600e54818054600181600116156101000203166002900480601f0160208091040260200160405190810160405280929190818152602001828054600181600116156101000203166002900480156110ca5780601f1061109f576101008083540402835291602001916110ca565b820191906000526020600020905b8154815290600101906020018083116110ad57829003601f168201915b505050505091509b509b509b509b509b509b509b509b509b509b509b509b50909192939495969798999a9b565b608060405190810160405280600073ffffffffffffffffffffffffffffffffffffffff168152602001600073ffffffffffffffffffffffffffffffffffffffff16815260200160008152602001600081525090565b8154818355818115116111795760040281600402836000526020600020918201910161117891906111ba565b5b505050565b602060405190810160405280600081525090565b602060405190810160405280600081525090565b602060405190810160405280600081525090565b61123491905b8082111561123057600080820160006101000a81549073ffffffffffffffffffffffffffffffffffffffff02191690556001820160006101000a81549073ffffffffffffffffffffffffffffffffffffffff021916905560028201600090556003820160009055506004016111c0565b5090565b905600a165627a7a72305820c89de21f4eeca0253357aa6d9f4aac626338c3531d59a3359c1f4c826a54d4690029a165627a7a72305820bf057e3934dbbd0a243bfc9d0f3eeebefc31c23692c9931aabc37e04605fa9ae0029",
  "source": "pragma solidity ^0.4.19;\r\n\r\nimport \"./Medicine.sol\";\r\nimport \"./AuthorityOracle.sol\";\r\n\r\n\r\ncontract MedTrace {\r\n\r\n    AuthorityOracle authorityOracle;\r\n\r\n    mapping(uint=>Medicine) medicine;\r\n    mapping(uint=>mapping(uint=>Medicine)) public meds;\r\n\r\n    function MedTrace(address _authorityOracle) public {\r\n        authorityOracle = AuthorityOracle(_authorityOracle);\r\n    }\r\n\r\n    modifier isProducer(address _address) {\r\n        require(authorityOracle.isProducer(_address));\r\n        _;\r\n    }\r\n\r\n    function produceMed(bytes16 _form, bytes16 _name, uint _batchNumber, uint _id,\r\n        uint _expirationDate, uint8 _price, string _docHash, bytes32 _docComment)\r\n    isProducer(msg.sender)\r\n    public {\r\n        meds[_batchNumber][_id] = new Medicine(msg.sender, authorityOracle, _form, _name, _batchNumber, _id, _expirationDate, _price, _docHash, _docComment);\r\n    }\r\n\r\n    function getMedAddress(uint _batchNumber, uint _id) view public returns(address _address) {\r\n        return meds[_batchNumber][_id];\r\n    }\r\n}\r\n",
  "sourcePath": "C:\\Projects\\solidity\\MedTrace\\contracts\\MedTrace.sol",
  "compiler": {
    "name": "solc",
    "version": "0.4.19+commit.c4cbbb05.Emscripten.clang"
  },
  "schemaVersion": "2.0.0",
  "updatedAt": "2018-03-11T07:59:13.150Z"
}