{
  "contractName": "MedTrace",
  "abi": [
    {
      "constant": true,
      "inputs": [
        {
          "name": "",
          "type": "bytes32"
        },
        {
          "name": "",
          "type": "bytes32"
        }
      ],
      "name": "meds",
      "outputs": [
        {
          "name": "",
          "type": "address"
        }
      ],
      "payable": false,
      "stateMutability": "view",
      "type": "function"
    },
    {
      "inputs": [
        {
          "name": "_authorityOracle",
          "type": "address"
        }
      ],
      "payable": false,
      "stateMutability": "nonpayable",
      "type": "constructor"
    },
    {
      "constant": false,
      "inputs": [
        {
          "name": "_form",
          "type": "uint8"
        },
        {
          "name": "_name",
          "type": "bytes32"
        },
        {
          "name": "_batchNumber",
          "type": "bytes32"
        },
        {
          "name": "_id",
          "type": "bytes32"
        },
        {
          "name": "_expirationDate",
          "type": "uint256"
        },
        {
          "name": "_price",
          "type": "uint256"
        }
      ],
      "name": "produceMed",
      "outputs": [],
      "payable": false,
      "stateMutability": "nonpayable",
      "type": "function"
    },
    {
      "constant": true,
      "inputs": [
        {
          "name": "_batchNumber",
          "type": "bytes32"
        },
        {
          "name": "_id",
          "type": "bytes32"
        }
      ],
      "name": "getMedInfo",
      "outputs": [],
      "payable": false,
      "stateMutability": "view",
      "type": "function"
    }
  ],
  "bytecode": "0x6060604052341561000f57600080fd5b60405160208061194d83398101604052808051906020019091905050806000806101000a81548173ffffffffffffffffffffffffffffffffffffffff021916908373ffffffffffffffffffffffffffffffffffffffff160217905550506118d28061007b6000396000f300606060405260043610610057576000357c0100000000000000000000000000000000000000000000000000000000900463ffffffff1680632ea290601461005c57806330c5703914610090578063a0cc11a1146100ef575b600080fd5b341561006757600080fd5b61008e60048080356000191690602001909190803560001916906020019091905050610163565b005b341561009b57600080fd5b6100ed600480803560ff16906020019091908035600019169060200190919080356000191690602001909190803560001916906020019091908035906020019091908035906020019091905050610284565b005b34156100fa57600080fd5b610121600480803560001916906020019091908035600019169060200190919050506104ea565b604051808273ffffffffffffffffffffffffffffffffffffffff1673ffffffffffffffffffffffffffffffffffffffff16815260200191505060405180910390f35b6002600083600019166000191681526020019081526020016000206000826000191660001916815260200190815260200160002060009054906101000a900473ffffffffffffffffffffffffffffffffffffffff1673ffffffffffffffffffffffffffffffffffffffff1663e5ca311c600060405161014001526040518163ffffffff167c010000000000000000000000000000000000000000000000000000000002815260040161014060405180830381600087803b151561022557600080fd5b6102c65a03f1151561023657600080fd5b50505060405180519060200180519060200180519060200180519060200180519060200180519060200180519060200180519060200180519060200180519050505050505050505050505050565b336000809054906101000a900473ffffffffffffffffffffffffffffffffffffffff1673ffffffffffffffffffffffffffffffffffffffff1663f5521022826000604051602001526040518263ffffffff167c0100000000000000000000000000000000000000000000000000000000028152600401808273ffffffffffffffffffffffffffffffffffffffff1673ffffffffffffffffffffffffffffffffffffffff168152602001915050602060405180830381600087803b151561034957600080fd5b6102c65a03f1151561035a57600080fd5b50505060405180519050151561036f57600080fd5b336000809054906101000a900473ffffffffffffffffffffffffffffffffffffffff168888888888886103a061052c565b808973ffffffffffffffffffffffffffffffffffffffff1673ffffffffffffffffffffffffffffffffffffffff1681526020018873ffffffffffffffffffffffffffffffffffffffff1673ffffffffffffffffffffffffffffffffffffffff16815260200187600481111561041157fe5b60ff16815260200186600019166000191681526020018560001916600019168152602001846000191660001916815260200183815260200182815260200198505050505050505050604051809103906000f080151561046f57600080fd5b6002600087600019166000191681526020019081526020016000206000866000191660001916815260200190815260200160002060006101000a81548173ffffffffffffffffffffffffffffffffffffffff021916908373ffffffffffffffffffffffffffffffffffffffff16021790555050505050505050565b60026020528160005260406000206020528060005260406000206000915091509054906101000a900473ffffffffffffffffffffffffffffffffffffffff1681565b60405161136a8061053d8339019056006060604052341561000f57600080fd5b6040516101008061136a83398101604052808051906020019091908051906020019091908051906020019091908051906020019091908051906020019091908051906020019091908051906020019091908051906020019091905050866000806101000a81548173ffffffffffffffffffffffffffffffffffffffff021916908373ffffffffffffffffffffffffffffffffffffffff1602179055506000809054906101000a900473ffffffffffffffffffffffffffffffffffffffff1673ffffffffffffffffffffffffffffffffffffffff1663f5521022896000604051602001526040518263ffffffff167c0100000000000000000000000000000000000000000000000000000000028152600401808273ffffffffffffffffffffffffffffffffffffffff1673ffffffffffffffffffffffffffffffffffffffff168152602001915050602060405180830381600087803b151561016f57600080fd5b6102c65a03f1151561018057600080fd5b50505060405180519050151561019557600080fd5b33600260006101000a81548173ffffffffffffffffffffffffffffffffffffffff021916908373ffffffffffffffffffffffffffffffffffffffff16021790555033600160006101000a81548173ffffffffffffffffffffffffffffffffffffffff021916908373ffffffffffffffffffffffffffffffffffffffff16021790555042600a8190555085600460006101000a81548160ff0219169083600481111561023c57fe5b02179055508460068160001916905550836007816000191690555082600881600019169055508160098190555080600b8190555050505050505050506110e3806102876000396000f3006060604052600436106100e6576000357c0100000000000000000000000000000000000000000000000000000000900463ffffffff16806306fdde03146100eb578063094ebde61461011c5780632b2805db146101265780632f89859b14610169578063376126721461018f5780635ee57413146101e457806383920e901461021b5780638f6204871461035d57806391b7f5ed1461038657806394cc2adc146103a957806398d5fdca146103d2578063af640d0f146103fb578063af6489291461042c578063b387ef9214610455578063ba873065146104aa578063e5ca311c146104db575b600080fd5b34156100f657600080fd5b6100fe6105c1565b60405180826000191660001916815260200191505060405180910390f35b6101246105c7565b005b341561013157600080fd5b61014b600480803560001916906020019091905050610a21565b60405180826000191660001916815260200191505060405180910390f35b341561017457600080fd5b61018d600480803560ff16906020019091905050610a39565b005b341561019a57600080fd5b6101a2610ab3565b604051808273ffffffffffffffffffffffffffffffffffffffff1673ffffffffffffffffffffffffffffffffffffffff16815260200191505060405180910390f35b34156101ef57600080fd5b6101f7610ad9565b6040518082600481111561020757fe5b60ff16815260200191505060405180910390f35b341561022657600080fd5b61022e610aec565b6040518080602001806020018060200180602001858103855289818151815260200191508051906020019060200280838360005b8381101561027d578082015181840152602081019050610262565b50505050905001858103845288818151815260200191508051906020019060200280838360005b838110156102bf5780820151818401526020810190506102a4565b50505050905001858103835287818151815260200191508051906020019060200280838360005b838110156103015780820151818401526020810190506102e6565b50505050905001858103825286818151815260200191508051906020019060200280838360005b83811015610343578082015181840152602081019050610328565b505050509050019850505050505050505060405180910390f35b341561036857600080fd5b610370610e29565b6040518082815260200191505060405180910390f35b341561039157600080fd5b6103a76004808035906020019091905050610e2f565b005b34156103b457600080fd5b6103bc610e95565b6040518082815260200191505060405180910390f35b34156103dd57600080fd5b6103e5610e9b565b6040518082815260200191505060405180910390f35b341561040657600080fd5b61040e610eb9565b60405180826000191660001916815260200191505060405180910390f35b341561043757600080fd5b61043f610ebf565b6040518082815260200191505060405180910390f35b341561046057600080fd5b610468610ec5565b604051808273ffffffffffffffffffffffffffffffffffffffff1673ffffffffffffffffffffffffffffffffffffffff16815260200191505060405180910390f35b34156104b557600080fd5b6104bd610eeb565b60405180826000191660001916815260200191505060405180910390f35b34156104e657600080fd5b6104ee610ef1565b604051808b73ffffffffffffffffffffffffffffffffffffffff1673ffffffffffffffffffffffffffffffffffffffff1681526020018a73ffffffffffffffffffffffffffffffffffffffff1673ffffffffffffffffffffffffffffffffffffffff16815260200189600481111561056257fe5b60ff1681526020018881526020018760001916600019168152602001866000191660001916815260200185600019166000191681526020018481526020018381526020018281526020019a505050505050505050505060405180910390f35b60065481565b6105cf610f8b565b600260009054906101000a900473ffffffffffffffffffffffffffffffffffffffff1673ffffffffffffffffffffffffffffffffffffffff163373ffffffffffffffffffffffffffffffffffffffff161415151561062c57600080fd5b610634610e9b565b341015151561064257600080fd5b600260009054906101000a900473ffffffffffffffffffffffffffffffffffffffff1673ffffffffffffffffffffffffffffffffffffffff166108fc3073ffffffffffffffffffffffffffffffffffffffff16319081150290604051600060405180830381858888f1935050505015156106bb57600080fd5b600160009054906101000a900473ffffffffffffffffffffffffffffffffffffffff1673ffffffffffffffffffffffffffffffffffffffff16600260009054906101000a900473ffffffffffffffffffffffffffffffffffffffff1673ffffffffffffffffffffffffffffffffffffffff161415610847576000809054906101000a900473ffffffffffffffffffffffffffffffffffffffff1673ffffffffffffffffffffffffffffffffffffffff1663f5521022600260009054906101000a900473ffffffffffffffffffffffffffffffffffffffff166000604051602001526040518263ffffffff167c0100000000000000000000000000000000000000000000000000000000028152600401808273ffffffffffffffffffffffffffffffffffffffff1673ffffffffffffffffffffffffffffffffffffffff168152602001915050602060405180830381600087803b151561081957600080fd5b6102c65a03f1151561082a57600080fd5b50505060405180519050151561083f57600080fd5b426005819055505b33816000019073ffffffffffffffffffffffffffffffffffffffff16908173ffffffffffffffffffffffffffffffffffffffff1681525050600260009054906101000a900473ffffffffffffffffffffffffffffffffffffffff16816020019073ffffffffffffffffffffffffffffffffffffffff16908173ffffffffffffffffffffffffffffffffffffffff16815250506108e1610e9b565b81604001818152505042816060018181525050600380548060010182816109089190610fe0565b9160005260206000209060040201600083909190915060008201518160000160006101000a81548173ffffffffffffffffffffffffffffffffffffffff021916908373ffffffffffffffffffffffffffffffffffffffff16021790555060208201518160010160006101000a81548173ffffffffffffffffffffffffffffffffffffffff021916908373ffffffffffffffffffffffffffffffffffffffff160217905550604082015181600201556060820151816003015550505033600260006101000a81548173ffffffffffffffffffffffffffffffffffffffff021916908373ffffffffffffffffffffffffffffffffffffffff160217905550610a14610a0f610e9b565b610e2f565b610a1e6001610a39565b50565b600d6020528060005260406000206000915090505481565b600260009054906101000a900473ffffffffffffffffffffffffffffffffffffffff1673ffffffffffffffffffffffffffffffffffffffff163373ffffffffffffffffffffffffffffffffffffffff16141515610a9557600080fd5b80600c60006101000a81548160ff021916908360ff16021790555050565b600160009054906101000a900473ffffffffffffffffffffffffffffffffffffffff1681565b600460009054906101000a900460ff1681565b610af4611012565b610afc611012565b610b04611026565b610b0c611026565b610b14611012565b610b1c611012565b610b24611026565b610b2c611026565b600080336000809054906101000a900473ffffffffffffffffffffffffffffffffffffffff1673ffffffffffffffffffffffffffffffffffffffff1663fe9fbb80826000604051602001526040518263ffffffff167c0100000000000000000000000000000000000000000000000000000000028152600401808273ffffffffffffffffffffffffffffffffffffffff1673ffffffffffffffffffffffffffffffffffffffff168152602001915050602060405180830381600087803b1515610bf457600080fd5b6102c65a03f11515610c0557600080fd5b505050604051805190501515610c1a57600080fd5b600380549050604051805910610c2d5750595b90808252806020026020018201604052509650600380549050604051805910610c535750595b90808252806020026020018201604052509550600380549050604051805910610c795750595b90808252806020026020018201604052509450600380549050604051805910610c9f5750595b90808252806020026020018201604052509350600092505b600380549050831015610e1057600383815481101515610cd357fe5b906000526020600020906004020191508160000160009054906101000a900473ffffffffffffffffffffffffffffffffffffffff168784815181101515610d1657fe5b9060200190602002019073ffffffffffffffffffffffffffffffffffffffff16908173ffffffffffffffffffffffffffffffffffffffff16815250508160010160009054906101000a900473ffffffffffffffffffffffffffffffffffffffff168684815181101515610d8557fe5b9060200190602002019073ffffffffffffffffffffffffffffffffffffffff16908173ffffffffffffffffffffffffffffffffffffffff168152505081600201548584815181101515610dd457fe5b906020019060200201818152505081600301548484815181101515610df557fe5b90602001906020020181815250508280600101935050610cb7565b868686869a509a509a509a505050505050505090919293565b60095481565b600260009054906101000a900473ffffffffffffffffffffffffffffffffffffffff1673ffffffffffffffffffffffffffffffffffffffff163373ffffffffffffffffffffffffffffffffffffffff16141515610e8b57600080fd5b80600b8190555050565b60055481565b6000600c60009054906101000a900460ff1660ff16600b5402905090565b60085481565b600a5481565b600260009054906101000a900473ffffffffffffffffffffffffffffffffffffffff1681565b60075481565b600080600080600080600080600080600260009054906101000a900473ffffffffffffffffffffffffffffffffffffffff16600160009054906101000a900473ffffffffffffffffffffffffffffffffffffffff16600460009054906101000a900460ff16600554600654600754600854600954600a54600b54995099509950995099509950995099509950995090919293949596979899565b608060405190810160405280600073ffffffffffffffffffffffffffffffffffffffff168152602001600073ffffffffffffffffffffffffffffffffffffffff16815260200160008152602001600081525090565b81548183558181151161100d5760040281600402836000526020600020918201910161100c919061103a565b5b505050565b602060405190810160405280600081525090565b602060405190810160405280600081525090565b6110b491905b808211156110b057600080820160006101000a81549073ffffffffffffffffffffffffffffffffffffffff02191690556001820160006101000a81549073ffffffffffffffffffffffffffffffffffffffff02191690556002820160009055600382016000905550600401611040565b5090565b905600a165627a7a723058205720b240eb111bde1f952bcd6feae1d99996ee6175a8b1d5cc740fb145e3826a0029a165627a7a7230582029a9f0e575ae8b48008898eee4bc7e8b1b46ff52983658d921e3aa9c52c6623e0029",
  "source": "pragma solidity ^0.4.18;\r\n\r\nimport \"./Medicine.sol\";\r\nimport \"./AuthorityOracle.sol\";\r\n\r\n\r\ncontract MedTrace {\r\n\r\n    AuthorityOracle authorityOracle;\r\n\r\n    mapping(bytes32=>Medicine) medicine;\r\n    mapping(bytes32=>mapping(bytes32=>Medicine)) public meds;\r\n\r\n    function MedTrace(address _authorityOracle) public {\r\n        authorityOracle = AuthorityOracle(_authorityOracle);\r\n    }\r\n\r\n    modifier isProducer(address _address) {\r\n        require(authorityOracle.isProducer(_address));\r\n        _;\r\n    }\r\n\r\n    function produceMed(Medicine.Forms _form, bytes32 _name, bytes32 _batchNumber, bytes32 _id, uint _expirationDate, uint _price)\r\n    isProducer(msg.sender)\r\n    public {\r\n        meds[_batchNumber][_id] = new Medicine(msg.sender, authorityOracle, _form, _name, _batchNumber, _id, _expirationDate, _price);\r\n    }\r\n\r\n    function getMedInfo(bytes32 _batchNumber, bytes32 _id) view public {\r\n        meds[_batchNumber][_id].getMedInfo();\r\n    }\r\n}\r\n",
  "sourcePath": "C:\\Projects\\solidity\\MedTrace\\contracts\\MedTrace.sol",
  "compiler": {
    "name": "solc",
    "version": "0.4.19+commit.c4cbbb05.Emscripten.clang"
  },
  "schemaVersion": "2.0.0",
  "updatedAt": "2018-03-09T11:43:04.157Z"
}