{
  "contractName": "MedTrace",
  "abi": [
    {
      "constant": true,
      "inputs": [
        {
          "name": "",
          "type": "uint256"
        },
        {
          "name": "",
          "type": "uint256"
        }
      ],
      "name": "meds",
      "outputs": [
        {
          "name": "",
          "type": "address"
        }
      ],
      "payable": false,
      "stateMutability": "view",
      "type": "function"
    },
    {
      "inputs": [
        {
          "name": "_authorityOracle",
          "type": "address"
        }
      ],
      "payable": false,
      "stateMutability": "nonpayable",
      "type": "constructor"
    },
    {
      "constant": false,
      "inputs": [
        {
          "name": "_form",
          "type": "string"
        },
        {
          "name": "_name",
          "type": "string"
        },
        {
          "name": "_batchNumber",
          "type": "uint256"
        },
        {
          "name": "_id",
          "type": "uint256"
        },
        {
          "name": "_expirationDate",
          "type": "uint256"
        },
        {
          "name": "_price",
          "type": "uint256"
        },
        {
          "name": "_docHash",
          "type": "string"
        },
        {
          "name": "_docComment",
          "type": "string"
        }
      ],
      "name": "produceMed",
      "outputs": [],
      "payable": false,
      "stateMutability": "nonpayable",
      "type": "function"
    },
    {
      "constant": true,
      "inputs": [
        {
          "name": "_batchNumber",
          "type": "uint256"
        },
        {
          "name": "_id",
          "type": "uint256"
        }
      ],
      "name": "getMedAddress",
      "outputs": [
        {
          "name": "_address",
          "type": "address"
        }
      ],
      "payable": false,
      "stateMutability": "view",
      "type": "function"
    }
  ],
  "bytecode": "0x6060604052341561000f57600080fd5b60405160208061218a83398101604052808051906020019091905050806000806101000a81548173ffffffffffffffffffffffffffffffffffffffff021916908373ffffffffffffffffffffffffffffffffffffffff1602179055505061210f8061007b6000396000f300606060405260043610610057576000357c0100000000000000000000000000000000000000000000000000000000900463ffffffff1680639d154ed71461005c578063ac546f56146100c8578063fe315d6b14610212575b600080fd5b341561006757600080fd5b610086600480803590602001909190803590602001909190505061027e565b604051808273ffffffffffffffffffffffffffffffffffffffff1673ffffffffffffffffffffffffffffffffffffffff16815260200191505060405180910390f35b34156100d357600080fd5b610210600480803590602001908201803590602001908080601f0160208091040260200160405190810160405280939291908181526020018383808284378201915050505050509190803590602001908201803590602001908080601f0160208091040260200160405190810160405280939291908181526020018383808284378201915050505050509190803590602001909190803590602001909190803590602001909190803590602001909190803590602001908201803590602001908080601f0160208091040260200160405190810160405280939291908181526020018383808284378201915050505050509190803590602001908201803590602001908080601f016020809104026020016040519081016040528093929190818152602001838380828437820191505050505050919050506102cd565b005b341561021d57600080fd5b61023c60048080359060200190919080359060200190919050506106a3565b604051808273ffffffffffffffffffffffffffffffffffffffff1673ffffffffffffffffffffffffffffffffffffffff16815260200191505060405180910390f35b600060026000848152602001908152602001600020600083815260200190815260200160002060009054906101000a900473ffffffffffffffffffffffffffffffffffffffff16905092915050565b336000809054906101000a900473ffffffffffffffffffffffffffffffffffffffff1673ffffffffffffffffffffffffffffffffffffffff1663f5521022826000604051602001526040518263ffffffff167c0100000000000000000000000000000000000000000000000000000000028152600401808273ffffffffffffffffffffffffffffffffffffffff1673ffffffffffffffffffffffffffffffffffffffff168152602001915050602060405180830381600087803b151561039257600080fd5b6102c65a03f115156103a357600080fd5b5050506040518051905015156103b857600080fd5b336000809054906101000a900473ffffffffffffffffffffffffffffffffffffffff168a8a8a8a8a8a8a8a6103eb6106e5565b808b73ffffffffffffffffffffffffffffffffffffffff1673ffffffffffffffffffffffffffffffffffffffff1681526020018a73ffffffffffffffffffffffffffffffffffffffff1673ffffffffffffffffffffffffffffffffffffffff1681526020018060200180602001898152602001888152602001878152602001868152602001806020018060200185810385528d818151815260200191508051906020019080838360005b838110156104b0578082015181840152602081019050610495565b50505050905090810190601f1680156104dd5780820380516001836020036101000a031916815260200191505b5085810384528c818151815260200191508051906020019080838360005b838110156105165780820151818401526020810190506104fb565b50505050905090810190601f1680156105435780820380516001836020036101000a031916815260200191505b50858103835287818151815260200191508051906020019080838360005b8381101561057c578082015181840152602081019050610561565b50505050905090810190601f1680156105a95780820380516001836020036101000a031916815260200191505b50858103825286818151815260200191508051906020019080838360005b838110156105e25780820151818401526020810190506105c7565b50505050905090810190601f16801561060f5780820380516001836020036101000a031916815260200191505b509e505050505050505050505050505050604051809103906000f080151561063657600080fd5b60026000898152602001908152602001600020600088815260200190815260200160002060006101000a81548173ffffffffffffffffffffffffffffffffffffffff021916908373ffffffffffffffffffffffffffffffffffffffff160217905550505050505050505050565b60026020528160005260406000206020528060005260406000206000915091509054906101000a900473ffffffffffffffffffffffffffffffffffffffff1681565b6040516119ee806106f6833901905600606060405234156200001057600080fd5b604051620019ee380380620019ee83398101604052808051906020019091908051906020019091908051820191906020018051820191906020018051906020019091908051906020019091908051906020019091908051906020019091908051820191906020018051820191905050886000806101000a81548173ffffffffffffffffffffffffffffffffffffffff021916908373ffffffffffffffffffffffffffffffffffffffff1602179055506000809054906101000a900473ffffffffffffffffffffffffffffffffffffffff1673ffffffffffffffffffffffffffffffffffffffff1663f55210228b6000604051602001526040518263ffffffff167c0100000000000000000000000000000000000000000000000000000000028152600401808273ffffffffffffffffffffffffffffffffffffffff1673ffffffffffffffffffffffffffffffffffffffff168152602001915050602060405180830381600087803b15156200018457600080fd5b6102c65a03f115156200019657600080fd5b505050604051805190501515620001ac57600080fd5b89600260006101000a81548173ffffffffffffffffffffffffffffffffffffffff021916908373ffffffffffffffffffffffffffffffffffffffff16021790555089600160006101000a81548173ffffffffffffffffffffffffffffffffffffffff021916908373ffffffffffffffffffffffffffffffffffffffff16021790555042600a8190555087600490805190602001906200024d929190620002e1565b50866006908051906020019062000266929190620002e1565b5085600781905550846008819055508360098190555082600b819055506001600c60006101000a81548160ff021916908360ff16021790555081600d9080519060200190620002b7929190620002e1565b5080600e9080519060200190620002d0929190620002e1565b505050505050505050505062000390565b828054600181600116156101000203166002900490600052602060002090601f016020900481019282601f106200032457805160ff191683800117855562000355565b8280016001018555821562000355579182015b828111156200035457825182559160200191906001019062000337565b5b50905062000364919062000368565b5090565b6200038d91905b80821115620003895760008160009055506001016200036f565b5090565b90565b61164e80620003a06000396000f3006060604052600436106100db576000357c0100000000000000000000000000000000000000000000000000000000900463ffffffff16806306fdde03146100e0578063094ebde61461016e5780632f89859b14610178578063376126721461019e5780635ee57413146101f357806383920e90146102815780638f620487146103c357806391b7f5ed146103ec57806394cc2adc1461040f57806398d5fdca14610438578063af640d0f14610461578063af6489291461048a578063b387ef92146104b3578063ba87306514610508578063e5ca311c14610531575b600080fd5b34156100eb57600080fd5b6100f361078c565b6040518080602001828103825283818151815260200191508051906020019080838360005b83811015610133578082015181840152602081019050610118565b50505050905090810190601f1680156101605780820380516001836020036101000a031916815260200191505b509250505060405180910390f35b61017661082a565b005b341561018357600080fd5b61019c600480803560ff16906020019091905050610c84565b005b34156101a957600080fd5b6101b1610cfe565b604051808273ffffffffffffffffffffffffffffffffffffffff1673ffffffffffffffffffffffffffffffffffffffff16815260200191505060405180910390f35b34156101fe57600080fd5b610206610d24565b6040518080602001828103825283818151815260200191508051906020019080838360005b8381101561024657808201518184015260208101905061022b565b50505050905090810190601f1680156102735780820380516001836020036101000a031916815260200191505b509250505060405180910390f35b341561028c57600080fd5b610294610dc2565b6040518080602001806020018060200180602001858103855289818151815260200191508051906020019060200280838360005b838110156102e35780820151818401526020810190506102c8565b50505050905001858103845288818151815260200191508051906020019060200280838360005b8381101561032557808201518184015260208101905061030a565b50505050905001858103835287818151815260200191508051906020019060200280838360005b8381101561036757808201518184015260208101905061034c565b50505050905001858103825286818151815260200191508051906020019060200280838360005b838110156103a957808201518184015260208101905061038e565b505050509050019850505050505050505060405180910390f35b34156103ce57600080fd5b6103d66110ff565b6040518082815260200191505060405180910390f35b34156103f757600080fd5b61040d6004808035906020019091905050611105565b005b341561041a57600080fd5b61042261116b565b6040518082815260200191505060405180910390f35b341561044357600080fd5b61044b611171565b6040518082815260200191505060405180910390f35b341561046c57600080fd5b61047461118f565b6040518082815260200191505060405180910390f35b341561049557600080fd5b61049d611195565b6040518082815260200191505060405180910390f35b34156104be57600080fd5b6104c661119b565b604051808273ffffffffffffffffffffffffffffffffffffffff1673ffffffffffffffffffffffffffffffffffffffff16815260200191505060405180910390f35b341561051357600080fd5b61051b6111c1565b6040518082815260200191505060405180910390f35b341561053c57600080fd5b6105446111c7565b604051808c73ffffffffffffffffffffffffffffffffffffffff1673ffffffffffffffffffffffffffffffffffffffff1681526020018b73ffffffffffffffffffffffffffffffffffffffff1673ffffffffffffffffffffffffffffffffffffffff168152602001806020018060200180602001806020018a815260200189815260200188815260200187815260200186815260200185810385528e818151815260200191508051906020019080838360005b838110156106125780820151818401526020810190506105f7565b50505050905090810190601f16801561063f5780820380516001836020036101000a031916815260200191505b5085810384528d818151815260200191508051906020019080838360005b8381101561067857808201518184015260208101905061065d565b50505050905090810190601f1680156106a55780820380516001836020036101000a031916815260200191505b5085810383528c818151815260200191508051906020019080838360005b838110156106de5780820151818401526020810190506106c3565b50505050905090810190601f16801561070b5780820380516001836020036101000a031916815260200191505b5085810382528b818151815260200191508051906020019080838360005b83811015610744578082015181840152602081019050610729565b50505050905090810190601f1680156107715780820380516001836020036101000a031916815260200191505b509f5050505050505050505050505050505060405180910390f35b60068054600181600116156101000203166002900480601f0160208091040260200160405190810160405280929190818152602001828054600181600116156101000203166002900480156108225780601f106107f757610100808354040283529160200191610822565b820191906000526020600020905b81548152906001019060200180831161080557829003601f168201915b505050505081565b6108326114e2565b600260009054906101000a900473ffffffffffffffffffffffffffffffffffffffff1673ffffffffffffffffffffffffffffffffffffffff163373ffffffffffffffffffffffffffffffffffffffff161415151561088f57600080fd5b610897611171565b34101515156108a557600080fd5b600260009054906101000a900473ffffffffffffffffffffffffffffffffffffffff1673ffffffffffffffffffffffffffffffffffffffff166108fc3073ffffffffffffffffffffffffffffffffffffffff16319081150290604051600060405180830381858888f19350505050151561091e57600080fd5b600160009054906101000a900473ffffffffffffffffffffffffffffffffffffffff1673ffffffffffffffffffffffffffffffffffffffff16600260009054906101000a900473ffffffffffffffffffffffffffffffffffffffff1673ffffffffffffffffffffffffffffffffffffffff161415610aaa576000809054906101000a900473ffffffffffffffffffffffffffffffffffffffff1673ffffffffffffffffffffffffffffffffffffffff1663f5521022600260009054906101000a900473ffffffffffffffffffffffffffffffffffffffff166000604051602001526040518263ffffffff167c0100000000000000000000000000000000000000000000000000000000028152600401808273ffffffffffffffffffffffffffffffffffffffff1673ffffffffffffffffffffffffffffffffffffffff168152602001915050602060405180830381600087803b1515610a7c57600080fd5b6102c65a03f11515610a8d57600080fd5b505050604051805190501515610aa257600080fd5b426005819055505b33816000019073ffffffffffffffffffffffffffffffffffffffff16908173ffffffffffffffffffffffffffffffffffffffff1681525050600260009054906101000a900473ffffffffffffffffffffffffffffffffffffffff16816020019073ffffffffffffffffffffffffffffffffffffffff16908173ffffffffffffffffffffffffffffffffffffffff1681525050610b44611171565b8160400181815250504281606001818152505060038054806001018281610b6b9190611537565b9160005260206000209060040201600083909190915060008201518160000160006101000a81548173ffffffffffffffffffffffffffffffffffffffff021916908373ffffffffffffffffffffffffffffffffffffffff16021790555060208201518160010160006101000a81548173ffffffffffffffffffffffffffffffffffffffff021916908373ffffffffffffffffffffffffffffffffffffffff160217905550604082015181600201556060820151816003015550505033600260006101000a81548173ffffffffffffffffffffffffffffffffffffffff021916908373ffffffffffffffffffffffffffffffffffffffff160217905550610c77610c72611171565b611105565b610c816001610c84565b50565b600260009054906101000a900473ffffffffffffffffffffffffffffffffffffffff1673ffffffffffffffffffffffffffffffffffffffff163373ffffffffffffffffffffffffffffffffffffffff16141515610ce057600080fd5b80600c60006101000a81548160ff021916908360ff16021790555050565b600160009054906101000a900473ffffffffffffffffffffffffffffffffffffffff1681565b60048054600181600116156101000203166002900480601f016020809104026020016040519081016040528092919081815260200182805460018160011615610100020316600290048015610dba5780601f10610d8f57610100808354040283529160200191610dba565b820191906000526020600020905b815481529060010190602001808311610d9d57829003601f168201915b505050505081565b610dca611569565b610dd2611569565b610dda61157d565b610de261157d565b610dea611569565b610df2611569565b610dfa61157d565b610e0261157d565b600080336000809054906101000a900473ffffffffffffffffffffffffffffffffffffffff1673ffffffffffffffffffffffffffffffffffffffff1663fe9fbb80826000604051602001526040518263ffffffff167c0100000000000000000000000000000000000000000000000000000000028152600401808273ffffffffffffffffffffffffffffffffffffffff1673ffffffffffffffffffffffffffffffffffffffff168152602001915050602060405180830381600087803b1515610eca57600080fd5b6102c65a03f11515610edb57600080fd5b505050604051805190501515610ef057600080fd5b600380549050604051805910610f035750595b90808252806020026020018201604052509650600380549050604051805910610f295750595b90808252806020026020018201604052509550600380549050604051805910610f4f5750595b90808252806020026020018201604052509450600380549050604051805910610f755750595b90808252806020026020018201604052509350600092505b6003805490508310156110e657600383815481101515610fa957fe5b906000526020600020906004020191508160000160009054906101000a900473ffffffffffffffffffffffffffffffffffffffff168784815181101515610fec57fe5b9060200190602002019073ffffffffffffffffffffffffffffffffffffffff16908173ffffffffffffffffffffffffffffffffffffffff16815250508160010160009054906101000a900473ffffffffffffffffffffffffffffffffffffffff16868481518110151561105b57fe5b9060200190602002019073ffffffffffffffffffffffffffffffffffffffff16908173ffffffffffffffffffffffffffffffffffffffff1681525050816002015485848151811015156110aa57fe5b9060200190602002018181525050816003015484848151811015156110cb57fe5b90602001906020020181815250508280600101935050610f8d565b868686869a509a509a509a505050505050505090919293565b60095481565b600260009054906101000a900473ffffffffffffffffffffffffffffffffffffffff1673ffffffffffffffffffffffffffffffffffffffff163373ffffffffffffffffffffffffffffffffffffffff1614151561116157600080fd5b80600b8190555050565b60055481565b6000600c60009054906101000a900460ff1660ff16600b5402905090565b60085481565b600a5481565b600260009054906101000a900473ffffffffffffffffffffffffffffffffffffffff1681565b60075481565b6000806111d2611591565b6111da611591565b6111e2611591565b6111ea611591565b6000806000806000600260009054906101000a900473ffffffffffffffffffffffffffffffffffffffff16600160009054906101000a900473ffffffffffffffffffffffffffffffffffffffff1660046006600d600e600b54600954600a54600754600854888054600181600116156101000203166002900480601f0160208091040260200160405190810160405280929190818152602001828054600181600116156101000203166002900480156112e45780601f106112b9576101008083540402835291602001916112e4565b820191906000526020600020905b8154815290600101906020018083116112c757829003601f168201915b50505050509850878054600181600116156101000203166002900480601f0160208091040260200160405190810160405280929190818152602001828054600181600116156101000203166002900480156113805780601f1061135557610100808354040283529160200191611380565b820191906000526020600020905b81548152906001019060200180831161136357829003601f168201915b50505050509750868054600181600116156101000203166002900480601f01602080910402602001604051908101604052809291908181526020018280546001816001161561010002031660029004801561141c5780601f106113f15761010080835404028352916020019161141c565b820191906000526020600020905b8154815290600101906020018083116113ff57829003601f168201915b50505050509650858054600181600116156101000203166002900480601f0160208091040260200160405190810160405280929190818152602001828054600181600116156101000203166002900480156114b85780601f1061148d576101008083540402835291602001916114b8565b820191906000526020600020905b81548152906001019060200180831161149b57829003601f168201915b505050505095509a509a509a509a509a509a509a509a509a509a509a50909192939495969798999a565b608060405190810160405280600073ffffffffffffffffffffffffffffffffffffffff168152602001600073ffffffffffffffffffffffffffffffffffffffff16815260200160008152602001600081525090565b8154818355818115116115645760040281600402836000526020600020918201910161156391906115a5565b5b505050565b602060405190810160405280600081525090565b602060405190810160405280600081525090565b602060405190810160405280600081525090565b61161f91905b8082111561161b57600080820160006101000a81549073ffffffffffffffffffffffffffffffffffffffff02191690556001820160006101000a81549073ffffffffffffffffffffffffffffffffffffffff021916905560028201600090556003820160009055506004016115ab565b5090565b905600a165627a7a723058208c5e05122c1db0cb74752931fc865434cea08e55808c97b2a355294a1ba03f560029a165627a7a723058206e2fee239a17a743acdc0ed8865367c67c8ec9d48d4edf57183e96d3670012cf0029",
  "source": "pragma solidity ^0.4.19;\r\n\r\nimport \"./Medicine.sol\";\r\nimport \"./AuthorityOracle.sol\";\r\n\r\n\r\ncontract MedTrace {\r\n\r\n    AuthorityOracle authorityOracle;\r\n\r\n    mapping(uint=>Medicine) medicine;\r\n    mapping(uint=>mapping(uint=>Medicine)) public meds;\r\n\r\n    function MedTrace(address _authorityOracle) public {\r\n        authorityOracle = AuthorityOracle(_authorityOracle);\r\n    }\r\n\r\n    modifier isProducer(address _address) {\r\n        require(authorityOracle.isProducer(_address));\r\n        _;\r\n    }\r\n\r\n    function produceMed(string _form, string _name, uint _batchNumber, uint _id,\r\n        uint _expirationDate, uint _price, string _docHash, string _docComment)\r\n    isProducer(msg.sender)\r\n    public {\r\n        meds[_batchNumber][_id] = new Medicine(msg.sender, authorityOracle, _form, _name, _batchNumber, _id, _expirationDate, _price, _docHash, _docComment);\r\n    }\r\n\r\n    function getMedAddress(uint _batchNumber, uint _id) view public returns(address _address) {\r\n        return meds[_batchNumber][_id];\r\n    }\r\n}\r\n",
  "sourcePath": "C:\\Projects\\solidity\\MedTrace\\contracts\\MedTrace.sol",
  "compiler": {
    "name": "solc",
    "version": "0.4.19+commit.c4cbbb05.Emscripten.clang"
  },
  "schemaVersion": "2.0.0",
  "updatedAt": "2018-03-11T13:02:27.101Z"
}